:020000040800F2
:10000000686B002095020008FD6200084D50000852
:10001000F9620008B10A0008819F00080000000092
:100020000000000000000000000000001173000844
:100030002111000800000000B164000841730008AD
:10004000AF020008AF020008AF020008AF020008CC
:10005000AF020008AF02000825110008AF02000837
:10006000AF0200082D11000835110008AF0200088A
:10007000AF020008AF020008AF020008AF0200089C
:10008000AF020008AF020008AF020008AF0200088C
:10009000B50A0008AF020008AF0200083D110008D1
:1000A000AF020008AF020008AF020008AF0200086C
:1000B00031740008AF020008AF020008AF02000868
:1000C000AF020008AF020008AF020008AF0200084C
:1000D000AF020008AF020008AF020008AF0200083C
:1000E000AF020008AF020008AF020008AF0200082C
:1000F000AF020008AF020008AF020008AF0200081C
:10010000AF020008AF020008AF020008AF0200080B
:10011000AF020008AF020008AF020008AF020008FB
:10012000AF020008AF020008610C000815110008BA
:10013000AF020008AF020008AF020008AF020008DB
:10014000AF020008AF020008AF0200080163000818
:10015000AF020008AF020008AF020008AF020008BB
:10016000AF020008AF020008AF020008AF020008AB
:10017000AF020008AF020008AF0200080000000054
:10018000AF020008AF02000800F002F800F072F8B9
:1001900014A696E8000CB244B344DA4501D100F04D
:1001A00069F8BAE80F000FA696E83000A5EB040541
:1001B00004EB0607AAEB0704A7F101074FEA1515A0
:1001C0004FEA3414A4F10104AC4201D300F052F818
:1001D00013F0010F18BFFB1A43F0010300F001F800
:1001E000DBE7184708F7000028F700000A444FF043
:1001F000000C10F8013B13F0070408BF10F8014B86
:100200001D1108BF10F8015B641E05D010F8016BCA
:10021000641E01F8016BF9D113F0080F1EBF10F82E
:10022000014BAD1C0C1B09D16D1E58BF01F801CB51
:10023000FAD505E014F8016B01F8016B6D1EF9D5D4
:100240009142D6D37047000070470000002300247D
:1002500000250026103A28BF78C1FBD8520728BFD6
:1002600030C148BF0B6070471FB50EF0A9FD1FBD20
:1002700010B510BD00F0A0F91146FFF7F5FF0AF028
:10028000EDFE00F0BEF903B4FFF7F2FF03BC00F08F
:1002900023FA00000948804709480047FEE7FEE7C7
:1002A000FEE7FEE7FEE7FEE7FEE7FEE7FEE7FEE726
:1002B00004480549054A064B704700001D740008B4
:1002C0008901000868650020686B002068670020CD
:1002D000686700209FED1A1AF5EE000A40EE010A49
:1002E000BDEEE00AF5EEC00A10EE100AF1EE10FACB
:1002F00038BF401E00EE100A1349F7EE001AB8EEA0
:10030000C00A30EEC00ADFED0F0A20EE200AFCEE34
:10031000C00A10EE900AC0F3080000EE900A01EB4C
:100320008000F8EE600A90ED011A70EE600A90ED20
:10033000000A71EEE01A21EE800A00EE810A704791
:1003400083F9223E0000004458F00008B5EEC00AD0
:10035000F1EE10FA07D2DFED1E0AB4EEE00AF1EE7C
:1003600010FAA8BF7047DFED1B0AB5EEC00A60EEB9
:10037000200ABDEEE01A11EE100AF1EE10FA38BFB5
:10038000401E00EE100A1549F7EE001AB8EEC00A3A
:1003900030EEC00ADFED100A60EE200ABCEEE00A83
:1003A00010EE100AC0F3080000EE100A01EB800006
:1003B000B8EE400A90ED011A70EEC00A90ED000A06
:1003C00071EEE01A21EE800A00EE810A704700000B
:1003D000CD024CB483F9223E0000004458F00008DE
:1003E00053EA020C00F069802DE9F04B4FF0000653
:1003F000002B1FBFB3FA83F503FA05F424FA05F6C0
:100400005E4012BF1643B2FA82F502FA05F4C5F156
:1004100020051EBF22FA05FC44EA0C04203556EAEA
:10042000044C4FEA144418BF641C4FF000084FF00E
:100430000009904271EB030C39D3002919BFB1FABE
:1004400081F701FA07F6B0FA80F700FA07F6C7F16C
:1004500020071EBF20FA07FC46EA0C062037B6FB31
:10046000F4FCA7EB0507103F07F01F0BCBF12006AC
:100470002CFA06F60CFA0BFB44BFB3460026202FDD
:10048000A4BF5E464FF0000B5BEA060C08BF4FF0BE
:10049000010B19EB0B0948EB0608ABFB027C06FBD2
:1004A00002CC0BFB03CCC01B71EB0C01C1E70B466C
:1004B000024641464846BDE8F08B13B5084318BFD5
:1004C0004FF0FF300146AFF30080BDE81C4070479D
:1004D00010B5431C02E010F8011B71B18107FAD17D
:1004E0004FF0013202C88C1A8C4314EAC211F9D0C1
:1004F000C01A0A0603D0C01E10BDC01A10BD0A04DF
:1005000001D0801E10BD0902FCD0401E10BD4FF06E
:10051000000200B5134694469646203922BFA0E853
:100520000C50A0E80C50B1F12001BFF4F7AF09075F
:1005300028BFA0E80C5048BF0CC05DF804EB890050
:1005400028BF40F8042B08BF704748BF20F8022B93
:1005500011F0804F18BF00F8012B704770477047AB
:10056000704710B500F008F8006810BD10B50446DB
:1005700000F002F8046010BD00487047B801002088
:100580001FB584B000200A9C06AB04AA02A90094FF
:10059000AFF3008018B1DDE9020108B010BD0348D7
:1005A000204000F037F800200146F6E70000207CEC
:1005B00000487047B80100207546FFF7F9FFAE46C6
:1005C00005006946534620F00700854618B020B55F
:1005D000FFF76EFEBDE820404FF000064FF0000729
:1005E0004FF000084FF0000BAC46ACE8C009ACE897
:1005F000C009ACE8C009ACE8C00921F007018D468C
:10060000704710B50446AFF300802046BDE81040A7
:10061000FFF739BE10B500F009F8BDE81040AFF3A0
:100620000080002801D000F057B8704710B50228AC
:1006300003D0410103D50DA112E0002010BD01013E
:1006400001D50FA10CE0C10001D511A108E0810086
:1006500001D512A104E0400001D513A100E0002162
:1006600015A000F03FF8012010BD0000496E766132
:100670006C6964204F7065726174696F6E00000070
:10068000446976696465204279205A65726F00007A
:100690004F766572666C6F7700000000556E64657A
:1006A00072666C6F77000000496E65786163742034
:1006B000526573756C7400005349474650453A20A3
:1006C00041726974686D65746963206578636570EB
:1006D00074696F6E3A20000001491820ABBEFEE736
:1006E0002600020070B505460C460A2000E06D1C8D
:1006F00000F011F835B128780028F8D102E0641C28
:1007000000F009F814B120780028F8D1BDE8704055
:100710000A20AFF3008008B569468DF80000032079
:10072000ABBE08BD704700000CF094BE0CF028BFB3
:10073000FFF7D0BD00281CBF0021016070470000FA
:1007400000281EBF0021C4F2B011016070470000F4
:10075000B1EEC00AB7EE001A81EE000A7047000041
:10076000FFF7F4BD0020C4F202001021012201F0C5
:10077000F9BD00000020C4F202001021002201F0A7
:10078000F1BD00007047000040F20040C4F20200DA
:100790000121012201F0E6BD40F20040C4F2020056
:1007A0000121002201F0DEBDB0F9003040F2180C4A
:1007B000C2F2000C00EE103A9CED001AB8EEC00A2E
:1007C00021EE000A81ED000AB0F902309CED001A1A
:1007D00000EE103AB8EEC00A21EE000A81ED010ADF
:1007E000B0F9043000EE103AB8EEC00A21EE000A6B
:1007F00081ED020AC3798179007A1B0243EA004045
:10080000084400EE100A9FED041AB8EE400A20EEEC
:10081000010A82ED000A704700401C427047000048
:100820000AF03CBC0AF088B9B0F9002000EE102AAA
:1008300040F21802C2F2000292ED011AB8EEC00AAC
:1008400021EE000A81ED000AB0F9023092ED011AA2
:1008500000EE103AB8EEC00A21EE000A81ED010A5E
:10086000B0F9040000EE100AB8EEC00A21EE000A4A
:1008700081ED020A7047000010B5FFF783FFFFF714
:10088000CDFF09F0CFFC08B1802402E009F07AFB2B
:1008900004460AF00BF800281CBF44F0400010BDCD
:1008A00009F0F8FE204310BD2DE9F04F83B002920D
:1008B0000E460190FFF75EFF922000F0C3F89220F1
:1008C00000F0C0F8552000F0BDF88046552000F03B
:1008D000B9F80546552000F0B5F88246552000F0DD
:1008E000B1F80446552000F0ADF88346552000F0DD
:1008F000A9F80746FFF736FF48EA052040F2180935
:1009000000B2C2F2000900EE100A99ED001AB8EE2A
:10091000C00A4AEA042021EE000A00B286ED000A6D
:1009200000EE100A4BEA072000B299ED001A02EE21
:10093000100AB8EEC00AB8EEC22A21EE000A21EE73
:10094000021A86ED010A86ED021AFFF725FF8020C4
:1009500000F078F8552000F075F80646552000F0B4
:1009600071F8552000F06EF88246552000F06AF8C4
:100970000546552000F066F88346552000F062F8E1
:100980000446552000F05EF80746552000F05AF85E
:100990008046FFF7F9FE0F2E25D14AEA052000B266
:1009A00000EE100A99ED011AB8EEC00A01994BEA5F
:1009B000042021EE000A00B281ED000A00EE100AC8
:1009C00047EA082000B299ED011A02EE100AB8EECB
:1009D000C00AB8EEC22A21EE000A21EE021A81ED09
:1009E000010A81ED021AFFF7C5FEA22000F02AF8E5
:1009F000A22000F027F8552000F024F8044646B263
:100A0000552000F01FF80546FFF7ACFEE00040EA75
:100A100055104FF60001CFF6FF71002E48BF084376
:100A200000EE100AB8EEC00AB4EE001A20EE010A79
:100A3000B3EE071A029830EE010A80ED000A03B007
:100A4000BDE8F08F80B582B08DF8070042F27040AB
:100A50004FF47A7CC2F200000DF107010DF106029D
:100A60000123CDF800C003F067FC9DF8060002B03A
:100A700080BD000090F900204078D3B2DB0043EA4B
:100A800050104FF60003CFF6FF73002A48BF1843FB
:100A900000EE100AB8EEC00AB4EE001A20EE010A09
:100AA000B3EE071A30EE010A81ED000A704700002C
:100AB000FEE7000041F62860C2F2000000F03EBEF2
:100AC00010B58AB00024CDE903140821DDE90CEC4F
:100AD000CDE907440791110A8DF80410190A8DF821
:100AE00006104FEA1E218DF808104FEA1C218DF8E0
:100AF00005208DF807308DF80A1003A901AA09AB6B
:100B0000CDE905448DF809E08DF80BC000F0BAFC82
:100B10000AB010BD80B588B001F50071B3EE041ABB
:100B2000002201910421B4EE410A0692CDE904228B
:100B3000CDE902220591F1EE10FAC8BFB0EE410AEC
:100B4000BBEE041AB4EE410A01A96A4607ABF1EE06
:100B500010FAB8BFB0EE410A8DED000A00F092FC29
:100B600008B080BD002070470020704710B541F6E6
:100B70000434C2F2000441F20C11C2F2000120461A
:100B8000002207F003F840F60C11C2F200012046E3
:100B900006F0EEFF002010BD10B541F60434C2F29D
:100BA00000040146204606F0E3FF204606F0BAFFA7
:100BB000002010BD0020704780B58AB06FF0007033
:100BC00001904FF0FF300090022003900020CDE90B
:100BD00005000820079041F62860C2F2000003A932
:100BE0006A4609AB00F04EFC0AB080BD80B58AB001
:100BF0006FF0407001904FF0FF30009002200390A2
:100C00000020CDE905000820079041F62860C2F2D7
:100C1000000003A96A4609AB00F034FC0AB080BDAD
:100C200080B58AB002218DF808000020C0F6552159
:100C3000ADF809008DF80B00CDE905000820019101
:100C400040F2FF71079041F628600391C2F2000064
:100C500003A901AA09AB00F015FC0AB080BD000091
:100C600080B500F009F841F67860C2F20000BDE8F6
:100C7000804001F085B80000B0B542F27040C2F289
:100C80000000C16C46F2A040C4F202000968A0F165
:100C9000480246F29F059142C4F2020522D950F85B
:100CA0009C2CA9424FF0200364DD46F23F45C4F27C
:100CB0000205A94278DC46F2A005C4F20205A94269
:100CC00000F08A8046F21045C4F20205A94200F005
:100CD000CC8046F22843C4F20203994200F0C3805C
:100CE00080E100BF46F25802C4F2020202F1600342
:100CF00099421FD9D2F8A823A9424FF0200340F30C
:100D00008F8046F23F45C4F20205A94200F3D0802D
:100D100046F2A005C4F20205A94200F0F18046F2B5
:100D20001045C4F20205A94200F0048146F22843AE
:100D3000FAE000BF914255D952F854CCA9424FF085
:100D4000200455DC46F23F05C4F20205A94240F3F7
:100D5000F58046F24005C4F20205A94200F0D680B3
:100D600046F27005C4F20205A94200F0F58046F291
:100D70008805EBE046F23F05C4F20205A94265DDB5
:100D800046F24005C4F20205A94225D046F270059C
:100D9000C4F20205A94268D046F28803C4F20203F5
:100DA000994214D01EE100BF46F24045C4F202054C
:100DB000A94211D046F27045C4F20205A94254D0AE
:100DC00046F28843C4F20203994240F00B814FF48B
:100DD000006313424CD13CE14FF40013134247D15E
:100DE00037E100BF52F858CCA9424FF02004A9DDEA
:100DF00046F23F45C4F20205A94271DC46F2A00565
:100E0000C4F20205A94200F0818046F21045C4F206
:100E10000205A94200F0A08046F2284596E000BFF6
:100E200046F23F05C4F20205A94275DD46F24005CF
:100E3000C4F20205A94263D046F27005C4F202056D
:100E4000A94277D046F2880340E000BF46F2100581
:100E5000C4F20205A94208D046F22803C4F20203F4
:100E6000994240F0BF804FF40063134200F0F180DC
:100E700046F27042C4F2020291420BD046F288421E
:100E8000C4F20202914209D14FF4006240F8942C5E
:100E9000F1E000BF202240F8942CECE04FF000621B
:100EA000814208BF4FF4001240F8942CE3E000BFE9
:100EB00046F24045C4F20205A94221D046F27045EF
:100EC000C4F20205A94235D046F28843C4F20203B7
:100ED000994240F0A9804FF40063134242D1B8E038
:100EE00046F24045C4F20205A9420FD046F27045D1
:100EF000C4F20205A9422FD046F2884526E000BF81
:100F00004FF4001313422DD1A3E000BF4FF400149F
:100F100004EA0C0525BB9CE046F21005C4F202056C
:100F2000A94207D046F22803C4F2020399427BD1BA
:100F30004FF40063134215D18BE000BF46F2100559
:100F4000C4F20205A94207D046F22805C4F2020500
:100F5000A94273D14FF4006404EA0C05002D78D047
:100F6000994219D946F21042C4F20202914235D098
:100F700046F22842C4F20202914229D046F240428F
:100F8000C4F2020291420CBF4FF400114FF0006115
:100F900040F8981C6FE000BF91422DD946F27000D6
:100FA000C4F2020081425FD046F28800C4F202001F
:100FB00081424FD046F2A000C4F2020081420CBF31
:100FC0004FF400104FF0006042F84C0C53E000BFAB
:100FD0004FF4006140F8981C4DE000BF202140F81C
:100FE000981C48E04FF00063814208BF4FF40013A3
:100FF00013427FF43DAF2CE046F21000C4F2020031
:10100000814235D046F22800C4F20200814227D046
:1010100046F24000C4F2020081420CBF4FF40010BF
:101020004FF0006025E000BF4FF00063814208BF31
:101030004FF40013134295D10BE000BF4FF0006452
:10104000814208BF4FF4001404EA0C05002D7FF420
:1010500087AFB0BD4FF4006042F84C0C0BE000BF0E
:101060004FF4006005E000BF202042F84C0C02E085
:10107000202042F8500C40F2C835C2F20005287812
:1010800000248007C4F2020422D46878800730D498
:10109000A87880070CD5A878102100F0FD00A87072
:1010A000A878012240F00400A870204601F05AF907
:1010B00009F078FE2878400758BFB0BD43F61040CD
:1010C000C4F20100016841F001010160B0BD00BF40
:1010D0002878012100F0FD0028702878012240F0D6
:1010E0000400287004F5806001F03CF968788007FE
:1010F000CED56878102100F0FD0068706878012274
:1011000040F004006870204601F02CF9A8788007B0
:10111000C1D4CDE741F6D860C2F2000000F030BE85
:1011200070470000012001F041B80000082001F0E4
:101130003DB80000102001F039B80000202001F077
:1011400035B8000072B600BFFEE7000070B581B090
:101150000022009290F83C20012A03D1022001B025
:1011600070BD00BFD1F800E001221FFA8EFC4FEAEB
:101170004C0380F83C200EEB4E0213FA8EF3102441
:10118000BEF1090F88BFA3F11E0288BF0C240368BB
:1011900007251E59954026EA05051D518D681E59E3
:1011A00005FA02F232431A514968062906D801EBC2
:1011B00081014A1F194651F8345F0EE00C2901EBFA
:1011C000810105D8A1F12302194651F8305F04E0EE
:1011D000A1F14102194651F82C5F1F24944025EAE1
:1011E00004040C600CFA02F20C6842F2043CC4F2F3
:1011F000010C2243ACF54174A3420A603ED1BEF11A
:10120000120F07D1DCF8001041F48001CCF8001077
:1012100034E000BF2EF0010110292FD1DCF80010BE
:10122000BEF1100F41F40001CCF8001026D140F2BD
:10123000B801C2F2000109684DF68362C4F21B32A4
:10124000A1FB0212910C01EB810149000091009970
:10125000A1B1009901390091009979B10099013942
:101260000091009951B1009901390091009929B17B
:1012700000990139009100990029EAD1002180F8F4
:101280003C10002001B070BD002804BF0120704751
:1012900010B5016C00293DD0016CC90645D4016C24
:1012A00041F202129143023142F204320164C4F26B
:1012B0000102116821F440311160136890E81210A6
:1012C0002343D0F810E013604A68012422F48072AE
:1012D0004A604A68C0F6007442EA0E224A604A68D0
:1012E00022F040724A604A6842EA0C024A608A6808
:1012F00022F400628A60C2688B681A438A60826A3C
:101300008B68A24223F070638B608B6810D123F04E
:10131000405216E0044600F065F820460021616462
:1013200084F83C10016CC906B9D5012153E000BF17
:101330001A438A608A6822F040528A60C26A8B68C7
:101340001A438A608A6822F002028A608A68037EF1
:1013500090F8204042EA43028A604A6884B142F42D
:1013600000624A604A684EF2000322F460424A601A
:10137000426ACFF6FF734C6803EB4232224301E02E
:1013800022F400624A60CA6A40F2000C22F4700241
:10139000CA62C3694269CFF6F07CCC6A0CEB035396
:1013A0002343CB628B6823F400738B6090F830305A
:1013B0008C6844EA43238B608B6823F480638B60E2
:1013C0008B6843EA82228A6000214164026C012317
:1013D00063F301020264002280F83C20BDE8104063
:1013E0000846704780B586B042F200210068C4F21A
:1013F0000101002288420592CDE903220292019266
:1014000002D006B080BD00BF43F630000092C4F2A7
:101410000200436943F480634361436903F48063DA
:101420000093009B0092036843F020030360006870
:1014300000F02000009000984FF48060019003209D
:10144000CDE9020201F5724001A900F0BBFE06B031
:1014500080BD000090F82020013A012A08D80068D9
:1014600000F114020020136819431160704700BF97
:1014700000F1240201204FF4802113681943116008
:101480007047000010B590F820E0D0F800C0AEF131
:10149000010EBEF1010FDCF808E011D81EF0E05F8C
:1014A00018D0CEF301640120A04018608B68DBB136
:1014B000D1F804E0C86840EACE0040EA030E17E025
:1014C00000F1240301204FF480211A6811431960B0
:1014D00010BD00BF00F1240301204FF400111A6871
:1014E0001143196010BD00BF0868CB6843EA405E35
:1014F0000CF5C07000EB0413240140F804E00C6903
:10150000184640F8044F097D012903D1016841F4D0
:101510008071016050680121D860106898600020D7
:101520001A681143196010BD90F82020013A012A71
:1015300030D8B0B546F20060C4F20000026842F054
:1015400001020260026822F47C520260D1F814E0C9
:10155000CC694A6A0368012C43EA022202600EF059
:101560001F024FF0010303FA02F2C3696FEA020C93
:1015700023EA0203C36113D02CBBC36803EA0C0344
:10158000C360CB688C8844EA034300EBCE04236439
:101590000B4611E0416A41F480214162012070470D
:1015A000C3681343C3600B688C8844EA034300EBB1
:1015B000CE04236401F10C038C681B8843EA0443C6
:1015C00000EBCE04636443688D6943EA0204D1F8FA
:1015D00010E0096A002D08BF03EA0C044460436967
:1015E000BEF1000F43EA020408BF03EA0C0401291C
:1015F000446102D1C1691143C161016821F0010157
:1016000001600020B0BD000070470000B0B590F848
:101610002040013C012C7DD8D0F800C000290CBF2F
:10162000DCF80C40DCF81040A4077DD00CF5D87530
:101630004FEA011C55F80C4014F00404946055F86E
:101640000CE005EB011C19BF4FEADE0555604FEABF
:101650005E551560DCF80050E64605F00205D560E1
:101660005EF8044F24075ABFDEF8004004F00F0470
:1016700008241461DEF800400029C4F307249461B3
:10168000DEF800504FEA15455561DCF808201A7065
:10169000026802EB0112D2F8B8214FEA12225A7006
:1016A000026802EB0112D2F8B8214FEA12429A7096
:1016B000026802EB0112D2F8B8214FEA1262DA7026
:1016C000026802EB0112D2F8BC211A71026802EB27
:1016D0000112D2F8BC214FEA12225A71026802EBC1
:1016E0000112D2F8BC214FEA12429A71026802EB51
:1016F0000112D2F8BC214FEA1262DA7100680CBF05
:1017000000F10C0100F11001002020220B681A43A7
:101710000A60B0BD00F1240101204FF480220B6863
:101720001A430A60B0BD00BF00F1240101204FF44C
:1017300000120B681A430A60B0BD00002DE9F04F9B
:1017400081B0044600684669D0F804908768D0F8F4
:101750000CB0D0F810A0D0F81880F10704D1002503
:1017600030071DD424E000BFF90710D00121BA07CB
:10177000816009D4780700F1AF80380700F1B680A6
:10178000204600F0EFFA02E0204600F0EDFA0025D6
:10179000F80500F18780F80300F1B180300707D524
:1017A0001BF0100004D0206845F400751021C160C2
:1017B000700708D51BF0080005D020680821C1601B
:1017C000204600F0FDF9B00706D52068C068800704
:1017D00002D0204600F0F8F9700607D51AF0100084
:1017E00004D0206845F4806510210161B00608D559
:1017F0001AF0080005D0206808210161204600F099
:101800007DFAF00606D520680069800702D02046E0
:1018100000F076FAB00308D519F0100005D0206862
:1018200010214160204600F06DFAF00308D519F050
:10183000080005D0206808214160204600F09EFA8B
:10184000300440F19B805FEA497040F1948006F4D7
:10185000807008EA102028435FEA8871014648BF7B
:1018600041F00201B20558BF01465FEA48700D46DB
:1018700048BF45F00405700558BF0D46300540F1DE
:101880007A8018F0700000F0768010380009052882
:101890006CD8DFE800F003655D61596945F0080523
:1018A00064E000BF20684FF48071BA0581600BD4FA
:1018B000780515D438051DD4204600F057FAF803F2
:1018C0007FF56CAF1BE000BF204600F051FAF80333
:1018D0007FF564AF13E000BF4FF4006558E700BF29
:1018E00005F50055F8037FF559AF08E04FF4805532
:1018F0004EE700BF05F58045F8037FF54FAF206840
:101900004FF48031BA0381600AD4780310D43803CD
:1019100014D4204600F02EFA30073FF541AF47E7D8
:10192000204600F029FA30073FF53AAF40E700BF04
:1019300005F5004530073FF533AF39E705F580354C
:1019400030073FF52DAF33E745F080050EE000BFCF
:1019500045F020050AE000BF45F0400506E000BF65
:1019600045F0100502E000BF45F4807520688169EC
:1019700021F07001816120680421416055B1606AE5
:1019800040EA05012046616201B0BDE8F04FFFF773
:101990003BBE00BF01B0BDE8F08F0000002804BFCF
:1019A00001207047B0B5044690F8200010B92046D9
:1019B00000F06EF82068016841F00101016000F05C
:1019C000D7FC054620684168C90705D100F0D0FC66
:1019D000401B0B28F6D310E0016821F002010160E2
:1019E00000F0C6FC054600BF2068416889070DD598
:1019F00000F0BEFC401B0B28F6D3606A052140F4C2
:101A000000306062012084F82010B0BD217E0268A1
:101A1000012922F0800208BF80320260617E0268E4
:101A2000012922F0400208BF40320260A17E026814
:101A3000012922F0200208BF20320260E17E026804
:101A4000012922F0100218BF10320260217F0268C3
:101A5000012922F0080208BF08320260617F026893
:101A6000012922F0040208BF04320260D4E901C255
:101A7000D4E9033561691A432A431143ACF10102E9
:101A80001143C16100200121606284F82010B0BDC3
:101A900080B586B0006846F60002C4F2000200215C
:101AA0009042CDE90411CDE90211019146D046F2F0
:101AB0000041C4F20001884240F07F8040F2E441DE
:101AC000C2F200010A6843F64000C4F20200531C4F
:101AD0000B6052B900210091016841F00071016072
:101AE000016801F00071009100990021009150F807
:101AF000102C42F0080240F8102C50F8100C022272
:101B000000F0080000900098032001900490092044
:101B1000059040F20040C4F20200CDE9022100F538
:101B2000006001A900F04EFB14200521002200F006
:101B3000C1FF142000F0ACFF06B080BD43F64000AA
:101B4000C4F202000091016841F080610160016807
:101B500001F080610091009940F2E441C2F200017D
:101B60000A68531C0B6052B900210091016841F0D2
:101B700000710160016801F000710091009900217D
:101B8000009150F8102C42F0020240F8102C50F84E
:101B9000100C00F0020000900098602001900220DC
:101BA000CDE90201032004900920059040F2004095
:101BB000C4F2020001A900F005FB06B080BD0000E0
:101BC000704700000000000070B58AB003AA01ABA6
:101BD0000021FFF71BFD0398A0F20121072923D262
:101BE0000138C1B2BDF80420890051FA80F042F2F8
:101BF000E85112BAC2F20001120C31F8103021F88B
:101C0000102001EB4000BDF80610BDF8082009BA0D
:101C1000090C418011BA9DF80A20090C03818180CA
:101C200082710AB070BD00BF002855D1BDF8050013
:101C30009FED2D1AC1BA00EE101AB8EEC00A80EE60
:101C4000010A9DF8072040F2D02400BA9DF8085000
:101C5000C2F20004000C9FED251A60829FED242A39
:101C6000100140EA1510A082A0F2FF7020EE011AC8
:101C700030EE000A31EE011A20EE020A84ED071A56
:101C800084ED080A00EE100A9FED1A1AB8EEC00A99
:101C90009FED192A9DF8041020EE010A20EE020A99
:101CA00001F00F039DF80960090910EE100A237472
:101CB00061740CF0CDFF9FED0A0B53EC102B0CF070
:101CC000A3FA0CF03FF9606205F00F00BDF80A10AE
:101CD00046EA0020E08221830AB070BD00BF00BF49
:101CE0006E861BF0F921194000FF7F470000B443C6
:101CF000D00F49400AD7233C0000704270470000D3
:101D00007047000070470000B0B5044690F820000E
:101D100001281DD1022084F820002068016821F0EC
:101D20000101016000F024FB054600BF2068406807
:101D3000C00713D000F01CFB401B0B28F6D3606AD1
:101D400040F400306062052084F820000120B0BD1E
:101D5000606A40F4002060620120B0BD0020606233
:101D6000B0BD0000704700007047000070470000E1
:101D70007047000070470000704700007047000087
:101D8000F0B581B00021009140F2B801C2F200012B
:101D90000B68D0E9166148F2B51537680822C1F61C
:101DA0004E358A403A42A3FB05350CD003681C68C7
:101DB000640708D51C6824F004041C60B260426DFE
:101DC00042F00102426501228A403A4208D003688B
:101DD0005B691B0604D5B260426D42F002024265A7
:101DE00004228A403A4208D003681B689B0704D546
:101DF000B260426D42F00402426510228A403A42CB
:101E000019D001680B681B0715D5B2600B680A680A
:101E10005B0309D4D20509D40A6822F008020A60DB
:101E2000016C29B907E000BF110341D4016C11B165
:101E3000044688472046C26D202101FA02F33B4246
:101E400043D001680F68FF063FD5B36090F8357046
:101E50000B68052F1CD123F016030B604B6923F090
:101E600080034B61036C0BB9836C1BB10B6823F0CF
:101E700008030B603F219140B160012180F83510CB
:101E8000016D0022002980F8342054D158E000BFB1
:101E90000A685B0310D4D20512D40A6822F010023B
:101EA0000A60012180F83510002180F8341007E025
:101EB000816C0029BCD1BEE7110301D4416C00E064
:101EC000C16B11B1044688472046416DC1B3416DD5
:101ED000C9072ED0052180F835100168AA0A0B68C1
:101EE00023F001030B60009B0133934200931AD847
:101EF0000B68DB0717D0009B01339342009312D885
:101F00000B68DB070FD0009B0133934200930AD884
:101F10000B68DB0707D0009B01339342009302D884
:101F20000B68DB07DFD1012180F83510002180F834
:101F30003410C16C21B101B0BDE8F040084700BFCA
:101F400001B0F0BD2DE9F041044600F011FAECB10A
:101F50000546022084F835000020216884F834000A
:101F6000086820F00100086021680868C00711D0E7
:101F700000F0FEF9401B0528F6D903252023032095
:101F8000636584F83550BDE8F08100BF0120BDE8ED
:101F9000F08100BF086848F23F02CFF21002D4E996
:101FA000013500EA020C04F10C0898E8C10143EA8B
:101FB0000C032B431843D4E9072E30433843104316
:101FC000626A40EA0E00042A40EA08031CD1206B32
:101FD000D4E90A2E40EA0E00184308604869BEF1B1
:101FE000000F20F0030040EA020040F0040C11D082
:101FF000B8F5005F36D0B8F1000F45D1022A46D0BF
:10200000012A3BD032B942E00B60486920F007005A
:1020100040EA020C01F0F8004AF6AB221038CAF68A
:10202000AA22A0FB02231A094FF68603C1F814C0A6
:10203000C0F600039A5C40F2FF335F284FF03F0088
:1020400021EA030100FA02F088BF0431C4E9161244
:102050008860002301250020636584F83550BDE8C1
:10206000F08100BF032AD5D8012540230120DFE8F5
:1020700002F0030E030500BF82E700BFAEF1C0709F
:10208000B0FA80F0400904E0032A04D3C2D1CEF3B1
:1020900000600028BED0012540230120636584F83C
:1020A0003550BDE8F0810000B0B5044600F060F99D
:1020B000054640F21000C2F200000078611C18BF13
:1020C000044400BF00F054F9401BA042FAD3B0BD55
:1020D00010B501381F2800F26780DFE800F01165B5
:1020E00065656565654765656565656565316565F2
:1020F000656565656565656565656565655300BFAD
:1021000040F2C834C2F20004012060710AF088FE77
:10211000012849D0E06904F1240109F0B9FC606AA2
:10212000002808BF10BD4EF60450CEF200004FF05C
:1021300080510160BFF34F8FBFF36F8F34E000BF5A
:102140000A2008F023FD40F2C830C2F200004178B6
:1021500041F001014170817841F001018170007905
:1021600010B3BDE8104008F01DBE00BF0B2008F002
:102170000DFD40F2C830C2F20000C17841F001010B
:10218000C17010BD092008F001FD40F2C830C2F254
:102190000000017841F001010170007920B1BDE833
:1021A000104008F0FFBD00BF10BD000043F6144111
:1021B000C4F201010A68024214BF08607047FFF7C9
:1021C00087BF00002DE9F04F83B000F1200200F13D
:1021D0003E4741F60045009207F1FF77C4F2020541
:1021E00008224FEAB726A84208BF072200254FF071
:1021F00000084FF00009072E38BF4FEAB7220192BE
:102200000AE000BF09F1010908F10208B9F1100F55
:1022100005F1040500F0A2800F68012202FA09FE10
:1022200017EA0E0AEED0D1F804C003220CF003071F
:102230007E1E02FA08F4012E6FEA040B12D884689D
:10224000CE6804EA0B0406FA08F634438460446856
:1022500024EA0E06CCF3001404FA09F4264346607F
:1022600004E000BF032F01D103271EE0C6688C687D
:1022700006EA0B0604FA08F42643022FC66014D1BE
:102280006FF00302009E02EA590756F807C005F0F6
:102290001C040F220B69A2402CEA0202A3401A433D
:1022A000F251D1F804C00CF00307026807FA08F3F2
:1022B00002EA0B021A431CF4403F0260A2D0002243
:1022C00043F644030292C4F202031A6843F6004440
:1022D00042F480421A601A68C4F2010402F4804297
:1022E0000292029A29F003024FF6084C2244CFF6DC
:1022F000FF7C52F80C3005F00C070F26BE40B343AC
:10230000019E06FA07F73B4342F80C30A2684B687F
:1023100042EA0A0743F60C4CDE0258BF22EA0A07DB
:10232000A760C4F2010CDCF800209E0242EA0A0712
:1023300058BF22EA0A07CCF8007062689E0342EA9E
:102340000A0758BF22EA0A0767602268DB0342EAED
:102350000A0758BF22EA0A07276053E703B0BDE81F
:10236000F08F0000002A08BF090481617047000057
:1023700046F20C30C2F2000000687047002804BF2B
:1023800001207047F0B581B0044690F83D0028B9AF
:10239000002084F83C00204600F07CFA242084F8D9
:1023A0003D002068016821F001010160016841F4ED
:1023B00000410160016821F40041016001F0A6FCC8
:1023C000636848F2A16CC0F2010C40F60011C0F243
:1023D0003D0163453CBF48F28041C0F21E01884286
:1023E00002D2012001B0F0BD4DF68361C4F21B3171
:1023F000A0FB01122168970CD1F804E04FF4967607
:102400002EF03F0545EA92454D60774348F6381671
:102410000D6AC0F24106A7FB067625F03F0763452B
:1024200038BF960C721C3A430A62CA6948F2A06629
:102430004CF6FF77C0F20106B34222EA07020BD83E
:1024400001385B00B0FBF3F001306FF31F3004285C
:1024500098BF04201BE000BFA768013857B11927B7
:102460007B43B0FBF3F001306FF31F3070B100F528
:10247000804007E003EB4303B0FBF3F001306FF360
:102480001F3018B100F5004001E000BF01201043EB
:10249000C8610868D4E9072320F0C000104318433E
:1024A0000860886848F2FF3204F10C0790438CCF33
:1024B00018431043A6698860C86820F0FF003843BD
:1024C0003043C860086840F0010008600020202107
:1024D000206484F83D10206384F83E0001B0F0BD14
:1024E0002DE9F04784B0994616460F460446FFF79B
:1024F0003FFF94F83D10202927D10546206800BFF2
:10250000816989071CD5FFF733FF411B20681A2911
:10251000F6D381698907F3D500202021206384F850
:102520003D1084F83E00206C04F13C0A40F020008D
:102530002064022000218AF8001004B0BDE8F08772
:10254000A2461AF83C1F012904D1022004B0BDE8BC
:10255000F08700BF01228AF800200368DDE90D182A
:102560000C9ADB0703D1036843F00103036003689F
:1025700023F400630360222084F83D00402084F8A7
:102580003E000020206462626185608D39462085AE
:102590000020CFF6FF70E062204632464B46CDE980
:1025A000008502F055FD18B1012004B0BDE8F087A8
:1025B000208D08B3022813D0012835D121680A687C
:1025C00022F480620A60002203924A6903928A69B7
:1025D0000392039A0A6842F400720A602CE000BF7A
:1025E00021680A6822F480620A600A6842F4006284
:1025F0000A60002203921AE00020039020684169DB
:102600000391816903910399016841F400710160AC
:10261000202084F83D00002084F83E0000218AF844
:10262000001004B0BDE8F0870021039121684A69D9
:1026300003928969039103990427C0F201070CE012
:1026400010690870606A218D01306062481E208523
:10265000618D013961850104DAD080B203280FD879
:1026600002284AD001282DD1204641462A4602F0B0
:102670008DFF002898D12068616A0069E1E700BFFA
:10268000204641462A4602F081FF00287FF48CAFA5
:102690002068616A00690870606A2268411C208DA8
:1026A000616201382085638D013B638553695B0757
:1026B000D1D580B20328C3D1106820F480601060A7
:1026C000BEE700BF2046394600224346009502F08F
:1026D0000BFE00287FF468AF2068616A026822F46C
:1026E0008062026000690870606A218D013060625A
:1026F000481E2085608D01386085204639460022BD
:102700004346009502F0F0FD00287FF44DAF2068AD
:10271000616A026842F40072026000690870606ACF
:102720002268411C6162218D01392185618D013949
:1027300061851169417085E72DE9F04383B09946C1
:1027400016460F460446FFF713FE94F83D10202965
:1027500024D10546206800BF816989071AD5FFF793
:1027600007FE411B20681A29F6D381698907F3D532
:1027700000202021206384F83D1084F83E00216C65
:1027800041F02001216484F83C00022003B0BDE840
:10279000F08300BF94F83C10012903D1022003B05C
:1027A000BDE8F083012284F83C200368DDE90B18C2
:1027B0000A9ADB0703D1036843F00103036003684F
:1027C00023F400630360212084F83D00402084F856
:1027D0003E000020206462626185608D394620855C
:1027E0000020CFF6FF70E062204632464B46CDE92E
:1027F000008502F0B7FC18B1012003B0BDE8F083FA
:10280000208D98B9204641462A4602F00FFD88B334
:10281000206C0428F0D12068016841F40071016047
:10282000012003B0BDE8F0830004EBD02046414610
:102830002A4602F0F3FE0028EAD1616A22680846BF
:1028400010F8013B1361238D6062581E2085678D4F
:10285000013F678557697F07E6D50704E4D04878CC
:102860001061881C6062981E2085618D0139618528
:10287000DAE700BF2068016841F4007101602020A0
:1028800084F83D00002084F83E0084F83C0003B04A
:10289000BDE8F0832DE9F04786B045F600460068B4
:1028A000C4F200060025B0420595CDE90355029516
:1028B000019503D006B0BDE8F08700BF43F63007AE
:1028C0000095C4F20207386801AC40F0040038609B
:1028D00038684FF0120800F004000090009800954E
:1028E00038684FF0030940F00100386038684FF055
:1028F000040A00F00100009000984FF4007001906D
:1029000006F5D6302146CDE90285CDF81090CDF8F8
:1029100014A0FFF757FC4FF48070CDE9010803A81D
:1029200080E8200606F5D2302146FFF74BFC0095E3
:10293000386940F400003861386900F40000009004
:10294000009806B0BDE8F08740F2100046F20C3166
:10295000C2F20000C2F2000100780A681044086068
:102960007047000080B543F60040C4F202000168E1
:1029700041F400710160016841F480610160016807
:1029800041F480710160032000F0C0F80F2000F0D6
:1029900005F800F05BF8002080BD000070B586B03F
:1029A000002543F640010195C4F202010A6804467D
:1029B00042F001020A60096801A801F001010191D9
:1029C0000199694601F07CF9049E002E18BF01268A
:1029D00001F09CF94DF68361B040C4F21B31A0FBBD
:1029E00001014FF0FF3000EB914142F21050C2F272
:1029F00000004FF0804240F2E733C0E90021C0E917
:102A000002530561856101F099FE08B106B070BD01
:102A100042F21050C2F2000001F0F0FE0028F5D1A1
:102A20001C2000F035F80F2C0CD81C202146002269
:102A300000F040F840F214010020C2F200010C60E6
:102A400006B070BD012006B070BD000082B000204D
:102A500043F640010190C4F202014A6842F4804208
:102A60004A604A6802F480420192019A0090086824
:102A7000002240F08050086008680F2100F080506C
:102A8000009000986FF0010002B000F013B8000051
:102A9000002848BF704700F01F01012202FA01F12F
:102AA0001C2202EAD0004EF20012CEF20002815047
:102AB0007047000010B54EF60C5CCEF2000CDCF84E
:102AC0000030C3F3022E8EF00704042C28BF042428
:102AD000BEF103034FF0FF3E0EFA04F438BF0023AB
:102AE000A14399400EFA03F39A43114300F00F02F9
:102AF00000F160430901043A03F56443624400288D
:102B000048BF02F10C03197010BD00004EF60C51C5
:102B1000CEF200010A684FF6FF031A4060F30A2262
:102B200042F0806040F0FD70086070477047000020
:102B300002680020516270472DE9F041D0F8008012
:102B4000D8F8243091B1D8F82870B1F1010C03EB1A
:102B500017414FD05FFA8CF708F58273042F0CF001
:102B6000030E0BD2002700242BE000BF43EA0241F2
:102B70000020C8F82810BDE8F08100BF0CF0FC056B
:102B800008F1F406002400BF56F8107F44F002005C
:102B900001EB174144F00107FFB253F82770C0B2B0
:102BA00053F8200001EB174101EB104044F0030102
:102BB000C9B253F821100434E7B2AF4200EB11411F
:102BC000E2D1BEF1000F15D053F82700BEF1010F7E
:102BD00001EB10410ED0601CC0B253F82000BEF1D2
:102BE000020F01EB104105D0A01CC0B253F8200029
:102BF00001EB104141EA024008EB8C01C1F80401ED
:102C00000020BDE8F0810000D0F8E00405F04EBBE4
:102C100001EBC102D0F8E03400EB8200026A1846F2
:102C200005F0A8BA01EBC102D0F8E03400EB820055
:102C3000D0F86022184605F0FBBA0000D0F8E00496
:102C400005F036BB10B54FFA81FC4FF4157201F058
:102C50000F0EBCF1000F48BF142290F894440244B8
:102C60000EEBCE034FEAD11C02EB8301012C81F85D
:102C700001C002F823E004BF022010BD0268012356
:102C800080F894340446104606F010F9002084F8C9
:102C9000940410BDB0B5037901F00F029A4284BFCD
:102CA0000120B0BD4BB24FF41574002B48BF142463
:102CB00000EB040E90F8944402EBC2034FEAD11CDF
:102CC0000EEB8301012C4FF0000481F801C08C70E1
:102CD0000EF8232004BF0220B0BD0268012380F853
:102CE00094340546104606F0D5FB204685F89444FA
:102CF000B0BD000001F00F0101EBC10100EB81004C
:102D0000D0F868027047000010B54FFA81FE01F05C
:102D10000F0CBEF1000F6FF3DF220CEBCC010DD4D2
:102D200000EB810E00240EF515718EF855428EF8D9
:102D300054C2CEF85C228EF8583209E000EB8101D3
:102D400001F814CF01244C708A600B71A1F81AC0ED
:102D5000022B04BF00224A7190F89424012A04BF78
:102D6000022010BD0268012380F894340446104606
:102D700005F00EFF002084F8940410BD10B501F09A
:102D80000F0E0EEBCE0100EB81044FF0000CC4F8E7
:102D900068C284F855C290F806C004F51571C4F8ED
:102DA0006022C4F86432BCF1010F84F854E208BF19
:102DB000CA610068624606F0B7FB002010BD000043
:102DC000B0B5027901F00F0494424FF001022CD803
:102DD0004BB24FF41575002B48BF14254FEAD11C98
:102DE00048BF2146054401EBC10305EB830181F88F
:102DF00001C090F894C48A70BCF1010F05F823401B
:102E000004BF0220B0BD02680123054680F8943457
:102E1000104606F069FB2CB92868A97905F29C4296
:102E200006F00AFB002285F894241046B0BD00008D
:102E300001F00F0C0CEBCC0100EB810101F814CF79
:102E40004FF0000C0B618379C1F814C04FF0010CF6
:102E5000CA60012B81F801C008BFCA6180B5006853
:102E60001A4606F061FB002080BD00002DE9F04FFE
:102E700087B005688246284606F072FD10B107B09B
:102E8000BDE8F08FDAF8000006F098FD0028F6D0D3
:102E9000D5F80808C0F30D21DAF80000CAF8D414F8
:102EA00006F08CFD0146DAF80000890703D5416978
:102EB00001F00201416105F50061049106F07EFD1B
:102EC0000146DAF80000C906059535D5816921F07B
:102ED000100181612C6A04F00F0000EBC0000AEBC6
:102EE0008001C4F34340062801F5157512D002286D
:102EF0001BD147F6F07014EA000616D0E9683409D1
:102F00000598224606F05EFDE86800EB1610E860C2
:102F100008E000BF05980AF29C41082206F052FD25
:102F2000C4F30A14686920446861DAF80000816912
:102F300041F010018161059D06F040FD000340F164
:102F4000F180DAF8000006F017FD002800F0EA80B2
:102F500006460AF29C404FF4306800244FF0000B04
:102F6000069019E005EB080002218160B80642BF17
:102F700005EB080020218160B80442BF05EB080082
:102F80004FF4005181600BF1010B760808F1200825
:102F900004F1240400F0C680F007F4D0DAF8000051
:102FA0005FFA8BF9494606F001FD0746C00760D07D
:102FB00005EB080001218160DAF8000008EB000150
:102FC000036C8A689AF80650012D25D1150733D471
:102FD000950600F19F8043F20B05C4F65475AB4291
:102FE000059D02D312F4004230D10AEB0402D2F85C
:102FF000743209696FF3DF41A3EB0101C2F8681273
:103000009CBBD2F86432002B00F08A80D2F86002B8
:103010000844C2F8600228E043F20B05C4F6547578
:10302000FF35AB4218D1059D10040FD4900644BF64
:103030002020886019E000BF43F20B00C4F65470F2
:10304000059D834215D312F4004012D04FF4004086
:10305000886038070FD43DE0059D34B9DAF8641272
:1030600019B90021069A06F0E7F950464946FFF7DC
:10307000D9FD38072ED505EB080008218160DAF864
:10308000000043F20B02056C40448168C4F65472A0
:1030900095420BD311F4004108D04FF400418160F8
:1030A000504600F019FD059D0AE000BF504600F0B3
:1030B00013FD43F20B00C4F654708542059D09D3FD
:1030C0009AF80600012805D1DAF80000069A0121D5
:1030D00006F0B2F9F80642BF05EB08001021816046
:1030E000B8077FF543AF6869000604D504994868BE
:1030F00040F4806048600AEB040090F85712012900
:103100007FF430AF002180F857125046494600F056
:1031100031FB27E720208860059D3807ABD4D9E72D
:1031200001219FE7DAF80000CDF818A006F046FC70
:10313000400340F1D3800698006806F015FC002893
:1031400000F0CC800646069805F5106900F11401E0
:1031500000F29C40002703910190CDF8089004E014
:10316000760807F1010700F0B980F007F8D006985B
:103170005FFA87FA0068514606F006FC0446C0076D
:1031800026D0049A07F00F00516B012303FA00F0D8
:1031900021EA0000506309EB4710836006988079AC
:1031A000012811D1039907EBC70001EB8000D0E99A
:1031B00002121144C1603FB9006928B90698019A0A
:1031C0000068012106F038F906985146FFF720FD06
:1031D000200742BF09EB471008218160E00642BF8B
:1031E00009EB471010218160600642BF09EB4710D0
:1031F00040218160A00716D52846394606F042FBDB
:10320000039907EBC70001EB800010F8031F0129A9
:1032100005D1002101700698514600F0A7FA09EB8C
:1032200047100221816020069AD5039907EBC70059
:1032300001EB8008D8E90420824291D30699D8F89E
:1032400008300C68111A994238BF0B4604EB47113D
:10325000D1F818C903F1030E1FFA8CF3B3EB9E0FDC
:103260002DD301F5106900BFD8F81020824224D96F
:10327000101A069AD8E902B19579584538BF8346A5
:103280001FFA8BF3204652460095059D06F042FE3C
:10329000D8F80C00D8F814105844C8F80C0001EB0A
:1032A0000B00C8F81400D9F818100BF1030289B20A
:1032B000B1EB920FD8D2D8F81020DDF808908242F6
:1032C0003FF64EAF07F00F00D4F83418012202FA8F
:1032D00000F021EA0000C4F8340841E7DDF8189056
:1032E000D9F8000006F06AFB002821D4D9F80000C4
:1032F00006F064FB00053AD4D9F8000006F05EFB46
:10330000C00445D50499486820F001004860D9F808
:103310000000102106F0B6FA99F80400010600F04A
:10332000EC80C1B2042900F0030035D200219AE0FC
:103330000499486820F00100486099F8CC040128FD
:1033400008D1002089F8CC0448460021FFF7EEFBA5
:1033500003E000BF484600F0A3FBD9F80000416934
:1033600001F00041416106F029FB0005C4D5049835
:103370008068C00702D0484600F0D6FBD9F80000AC
:10338000416901F40061416106F018FBC004B9D441
:10339000D9F80000DDE000BF6FF0600202EA4112E0
:1033A00000234FF67F370021EE18C6F80879D6F8CB
:1033B0000059803325F40015C6F80059C6F8087B7B
:1033C000D6F8005B9A4225F40015C6F8005BD6F8E3
:1033D000005B01F1040145F00065C6F8005BC6F82A
:1033E0002879D6F8205925F40015C6F82059C6F8D2
:1033F000287BD6F8205B25F40015C6F8205BD6F8AC
:10340000205B45F00065C6F8205BC6F84879D6F821
:10341000405925F40015C6F84059C6F8487BD6F83F
:10342000405B25F40015C6F8405BD6F8405B45F0DC
:103430000065C6F8405BC6F86879D6F8605925F48F
:103440000015C6F86059C6F8687BD6F8605B25F4AD
:103450000015C6F8605BD6F8605B45F00065C6F8FD
:10346000605B059DA0D1002847D005F5106202EBF6
:1034700041134FF67F374E019F609559059B25F408
:10348000001503F53063955103EB4115AF609D596D
:10349000012825F400159D519D5945F000659D5169
:1034A0002BD04E1C02EB46147501A760545903EB58
:1034B000461624F400145451B7605F59022827F4CB
:1034C00000175F515F5947F000675F5115D0881CA6
:1034D00002EB40174FF67F364101BE60575803EBB1
:1034E000401027F4001757508660585820F40010F9
:1034F0005850585840F000605850049F8421F86993
:10350000442240F00110F86199F80F0000284FF0B4
:103510000B0008BF142108BF42F22B007B5808BFE4
:10352000102218437850B85840F00B00B850386853
:1035300009F29C4220F4FE603860D9F8000099F846
:10354000061005F079FFD9F80000416901F48051B7
:10355000416106F033FA0146D9F8000089041AD512
:1035600005F058FBD9F8000006F0ECF9D9F8004056
:1035700089F8070000F0C4FB99F8072001462046AF
:1035800006F03CFC484600F075FAD9F800004169A5
:1035900001F40051416106F011FA000706D4D9F890
:1035A000000006F00BFA00060DD437E0484600F0A4
:1035B0007BFAD9F80000416901F00801416106F089
:1035C000FDF900062AD50599886920F080008861F8
:1035D00099F80400022821D309F5157409F114059E
:1035E000012640F27B2704E00136864207F12407DA
:1035F00014D219F807100129F6D106F00F0000EBDC
:10360000C0023006D9F8000005EB820158BF04EB78
:10361000820106F0A7F899F80400E5E7D9F8000060
:1036200006F0CCF9C0024BD4D9F8000006F0C6F978
:10363000059D80027CD599F80410022926D305F552
:103640003260013909F51F72012304E0203001398D
:1036500002F124021AD007681678012EF6D1B7F1CC
:10366000FF3FF3DCD9F8D46486EA1747FF07EDD1B2
:1036700002F8013CAF6947F08007AF616F693F0610
:10368000E4D40499486840F400704860D9F8000018
:10369000416901F40011416106F090F940004DD5F7
:1036A0004846FFF7B1FAD9F80000416901F08041BE
:1036B000416106F083F940077FF5E1AB45E000BFCB
:1036C00099F80400022827D3059909F1140401F59B
:1036D000126509F13B064FF00108012706E000BF23
:1036E00001372035874206F1240615D22968727801
:1036F000012AF5D1B1F1FF3FF2DC07F00F0000EB3A
:10370000C001D9F8000004EB810186F8008006F0C2
:1037100029F899F80400E3E7D9F80000416901F4B9
:103720008011416106F04AF9059D80023FF583AFA3
:10373000D9F8000006F042F94000B1D4D9F80000F1
:1037400006F03CF940077FF59AABD9F800004468D1
:10375000610704D54846FFF771FAD9F800004168BF
:103760002143416007B0BDE8F08F0000D0F8E004CD
:1037700004F002BED0F8E00404F014BE002804BF38
:1037800001207047F0B581B00446056890F89504B3
:1037900028B9002084F89404204600F027F903207B
:1037A000B5F1A04F84F8950404BF0020A0712068F3
:1037B00005F03AFE94E80F00267C009605F03AFAF0
:1037C000002840F000812068002106F051F900280F
:1037D00040F0F98094F804E0BEF1000F00F0EC80B6
:1037E0000EF0030CBEF1040F4FF0000240D30EF0B8
:1037F000FC03A4F190000321012500BFCE1E80F838
:10380000A460A0F8BE608E1E80F8C860A0F8E260D8
:103810004E1E80F8EC60A0F8066180F81011A0F848
:103820002A110E1D013180F8A55080F8A820C0E9AA
:103830002B22C0F8B42080F8C95080F8CC20C0E911
:103840003422C0F8D82080F8ED5080F8F020C0E98C
:103850003D22C0F8FC2080F8115180F81421C0E905
:103860004622C0F82021903099423146C6D1F21E3E
:10387000BCF1000F31D004F1140002EBC20100EBE7
:103880008105012300F821200021BCF1010F6B709C
:103890006A832971C5E9021129611ED0551C05EB07
:1038A000C50600EB8607BCF1020F7B7000F82650BE
:1038B0007D833971C7E9021139610ED0911C01EB8A
:1038C000C10200EB8203012500F8221000205D7088
:1038D00059831871C3E902001861BEF1000F6BD063
:1038E000BEF1040F4FF0000236D30EF0FC000321AE
:1038F000234600BFCF1E83F854728F1E83F8787260
:103900004F1E83F8C0120D1D013183F8552283F834
:103910005822C3E99722C3F8642283F8792283F8F6
:103920007C22C3E9A022C3F8882283F89D2283F871
:103930009C7283F8A022C3E9A922C3F8AC2283F8C1
:10394000C12283F8C422C3E9B222C3F8D022903343
:1039500081422946CED1EA1EBCF1000F2CD004F5DD
:10396000157002EBC20300EB83070021BCF1010FCD
:10397000797000F823203971C7E9021139611BD031
:10398000531C03EBC30700EB8706BCF1020F7170F9
:1039900000F827303171C6E9021131610CD0911C59
:1039A00001EBC10200EB820300275F7000F82210D8
:1039B0001F71C3E902771F6194E80F00277C00970D
:1039C00005F0D6FA30B1022084F89504012001B048
:1039D000F0BD00BF00206074012084F895042068C9
:1039E00005F0B6FA002001B0F0BD0000B0B586B019
:1039F00000680024B0F1A04F0594CDE9034402947F
:103A0000019401D006B0B0BD43F630050094C4F275
:103A10000205286801A940F001002860286800F02C
:103A20000100009000984FF4C05001900220CDE9B1
:103A30000204032004900A2005900020C4F2020032
:103A4000FEF7C0FB6868052140F0800068600094C4
:103A50006869002240F480406861686900F4804031
:103A6000009000984320FFF725F84320FFF710F857
:103A700006B0B0BD10B50446C07928B1022801D007
:103A8000FDF760FB012100E00021D4F8E00404F020
:103A900011FDD4F8E004BDE8104004F0BFBC000004
:103AA000D0F8E00404F0ECBCD0F8E00404F0F2BC80
:103AB00090F89424012A04BF0220704710B5012217
:103AC00080F89424417402680446104606F084F994
:103AD000002084F8940410BDD0F8E02400F29C414A
:103AE000104604F0FDBC000010B5044690F89404A4
:103AF000012804BF022010BD2068012184F894141D
:103B0000C168490606D5617B012903D1816B41F467
:103B10008031816305F0AEFE206805F009FA0020CF
:103B200084F8940410BD000010B50446D0F8E004F9
:103B300004F02CFD2068D0F8001E41F00101C0F80F
:103B4000001EE07A002808BF10BD4EF61050CEF2DD
:103B50000000016841F00601016010BD002804BFAB
:103B6000012070472DE9F04143F60808C4F202082D
:103B70000446D8F8F8030D4600F00700814207D943
:103B800088F8F853D8F8F80300F00700A84277D176
:103B90002068810717D5410705D5D8F8001041F4F2
:103BA000E051C8F80010010705D5D8F8001041F41D
:103BB0006041C8F80010D8F80010A26821F0F001A8
:103BC0001143C8F80010C00740D1D8F8F80300F03E
:103BD0000700854207D288F8F853D8F8F80300F0B8
:103BE0000700A8424CD12068410707D5D8F800103B
:103BF000E26821F4E0511143C8F80010000708D52D
:103C0000D8F80000216920F4604040EAC100C8F8FB
:103C1000000000F08FF8D8F800104FF65C02C1F3F6
:103C20000311C0F60002515C40F2B80220FA01F123
:103C300040F21400C2F200000068C2F200021160FB
:103C4000FEF7ACFE0020BDE8F08100BF6068811E79
:103C5000022907D258F8081C89015CBF0120BDE881
:103C6000F08111E0012807D158F8081C89035CBFD6
:103C70000120BDE8F08107E058F8081C890703D44B
:103C80000120BDE8F08100BFD8F8001021F0030149
:103C90000843C8F80000FEF76BFB064641F2883780
:103CA000D8F80000616800F00C00B0EB810F8CD0F8
:103CB000FEF75EFB801BB842F2D90320BDE8F0811D
:103CC0000F22026043F60802C4F20202136803F0F6
:103CD00003034360136803F0F0038360136803F485
:103CE000E053C360D2F800C04FF4E05303EADC03B2
:103CF0000361D2F8F80300F0070008607047000085
:103D000040F2B800C2F200000068704740F2B8000C
:103D100043F60801C2F20000C4F20201006809681B
:103D20004FF66C02C1F38221C0F60002515CC8401C
:103D30007047000010B543F60404C4F20204616841
:103D4000C1F3810142F20040C0F2F400DFE801F06B
:103D500002040A0210BD00BF41F60030C0F2B700F5
:103D600010BD00BF206821682368490241F6003178
:103D7000C0F2B70100F03F02C3F388105CBF42F20B
:103D80000041C0F2F401A1FB00010023FCF728FB75
:103D900021680222C1F3014102EB4101B0FBF1F0C5
:103DA00010BD0000002804BF012070472DE9F0413C
:103DB00082B00446007843F60006C007C4F202064B
:103DC0000CD0B06800F00C00042840F0818030680E
:103DD000800303D56068002800F0688120788007A0
:103DE0001BD5B06810F00C0F09D0B06800F00C00C3
:103DF000082840F087807068400200F183803068B6
:103E0000800703D5E068012840F0508130682169BF
:103E100020F0F80040EAC10030602078000713D499
:103E2000207840072AD4A569002D00F03A81B068B7
:103E300000F00C00082840F0A580012D40F00E8114
:103E4000012002B0BDE8F0816069002800F08280A6
:103E50000020C4F247200121C0F8801EFEF788FA36
:103E6000054600BF706F8007DAD4FEF781FA401B69
:103E70000228F7D9032002B0BDE8F081306C5FEA78
:103E8000C0080AD400200190306C40F080503064AB
:103E9000306C00F080500190019847F20007C4F2A6
:103EA00000073868C00547D4386840F4807038602F
:103EB000FEF75EFA054600BF3868C0053CD4FEF741
:103EC00057FA401B0228F7D9032002B0BDE8F08161
:103ED000B06800F00C00082803D1706840023FF57C
:103EE00076AF61683068B1F5803F07D0B1F5A02F9B
:103EF00040F09A8040F480203060306840F4803098
:103F000030609AE0E068002840F20000C4F24720E8
:103F10005CD001210160FEF72BFA0546306880076E
:103F20003FF574AFFEF724FA401B0228F6D90320B0
:103F300002B0BDE8F08100BFA168306F012905D053
:103F4000052955D140F004003067306F40F0010082
:103F5000306756E00020C4F247200021C0F8801EE0
:103F6000FEF706FA054600BF706F80077FF558AF71
:103F7000FEF7FEF9401B0228F6D9032002B0BDE887
:103F8000F08100BF0027C4F2472700203866FEF703
:103F9000EFF9022D05460DD13068800140F18A808D
:103FA000FEF7E6F9401B02284FF00300F4D902B0F7
:103FB000BDE8F0813068800173D5FEF7D9F9401B68
:103FC00002284FF00300F5D9F1E700BF002101609E
:103FD000FEF7CEF9054600BF306880077FF51DAFBC
:103FE000FEF7C6F9401B02284FF00300F4D9DEE7C4
:103FF00020F001003067306F002920F004003067A6
:104000007AD0FEF7B5F9054641F28837306F800760
:1040100000F18480FEF7ACF9401BB842F6D90320CA
:1040200002B0BDE8F08100BF20F48030306030681D
:10403000002920F4802030607AD0FEF799F90546F7
:10404000306880033FF5CAAEFEF792F9401B642842
:10405000F6D9032002B0BDE8F08100BF7068E169C5
:1040600000F480028A4221D1216A00F03F028A4294
:104070001CD147F6C071626A0140B1EB821F15D1B5
:10408000A16A4FF6FF73C903994300F44032A1F5CA
:1040900080318A420AD1E16A00F07060B0EB016FB2
:1040A00004D1002002B0BDE8F08100BF012002B0C1
:1040B000BDE8F08104F11C052FCD084340EA8210D1
:1040C000D9034FF6FF729143A1F5803140EA0560B4
:1040D0000843706001203866FEF74AF9044600BFC5
:1040E00030688001DDD4FEF743F9001B02284FF051
:1040F0000300F5D95BE700BFFEF73AF9054641F248
:10410000883700BF306F800708D5FEF731F9401BB4
:10411000B8424FF00300F5D949E700BFB8F1000FEE
:104120003FF581AE306C20F0805030647BE600BFFC
:10413000FEF71EF9054600BF306880037FF54EAEDE
:10414000FEF716F9401B64284FF00300F4D92EE760
:1041500070B528B1416A29B100210161142106E03E
:10416000012070BD4168B1F5827F02D01C21002280
:1041700042500026866290F8511029B980F85060AC
:10418000054600F03DF82846022180F8511090E8DD
:104190002E0002F482720C6803F4044324F04004FD
:1041A0000C601A4405F4006305691A4405F0020323
:1041B00045691A4405F001038569C4691A4405F488
:1041C00000731A4404F03803046A1A4404F08003AC
:1041D000846A1A4304F400531A430A60436A0422AF
:1041E00002EA154203F010031A444A60CA6922F435
:1041F0000062CA610121466580F85110304670BDE9
:104200002DE9F04F87B0044643F200070068C4F27E
:1042100001070026B8420696CDE904660396029689
:1042200002D007B0BDE8F08F43F630000196C4F22B
:104230000200416902AD41F48051416141694FF092
:10424000020901F4805101910199019601684FF032
:10425000010A41F00201016001684FF0030B01F017
:10426000020101910199019601684FF0050841F0A2
:10427000010101600068294600F0010001900198E9
:104280001820029007F55440CDF80C90CDF810A0FE
:10429000CDF814B0CDF81880FDF794FF802002A966
:1042A00081E8010ECDF8188046F2404807F55040ED
:1042B0002946C4F20208FDF785FF41F67865C2F28F
:1042C00000054FF440304FF0C0674FF48069C5E9F6
:1042D00008062846C5E90087C5E90266C5E90496CF
:1042E000C5E90666FDF72EFE002818BFFCF72AFF79
:1042F000E564AC6341F6D86508F11800C2F2000528
:104300004021C5E9000705F10800002280E8060207
:104310004FF40030C5E908022846C5E90522EA61E4
:10432000FDF710FE002818BFFCF70CFFA564AC6376
:1043300007B0BDE8F08F00002DE9F04383B01E46C2
:1043400015460F460446FEF713F894F851108146BF
:10435000012909D1002F4FF0010018BF002D0FD106
:1043600003B0BDE8F08300BF6068B0F5827F0DD177
:1043700004294FF00200F3D1A1680029EAD0EFE749
:10438000002EEDD094F85000012803D1022003B094
:10439000BDE8F083012084F8500094F8510000211A
:1043A00004281CBF052084F851006165A563E687D9
:1043B000A6872763E6862068A68621646164016873
:1043C000490603D4016841F0400101606168731E31
:1043D000E268B1FA81F1B3FA83F3DDF82880490984
:1043E0005B09B2F5006F41EA030165D131B137F8DD
:1043F000021BC1602763E08E0138E086012518F1B9
:10440000010032D102E000BFFDF7B2FFE08E18B923
:10441000E08F002800F0B8802068816889070CD5FB
:10442000E18E51B1012D08D1216B002531F8022B0D
:10443000C2602163E18E0139E1868168C907E3D05A
:10444000E18F0029E0D0C068A16B012521F8020BA3
:10445000A163E08F0138E087D6E700BFFDF788FF52
:10446000A0EB0900404580F0A580E08E18B9E08FF0
:10447000002800F089802068816889070CD5E18ECA
:1044800051B1012D08D1216B002531F8022BC260FA
:104490002163E18E0139E1868168C907DED0E18FB1
:1044A0000029DBD0C068A16B012521F8020BA163B4
:1044B000E08F0138E087D1E739B139780173206B9B
:1044C00001302063E08E0138E086012518F10100FB
:1044D00032D101E0FDF74CFFE08E10B9E08F0028EB
:1044E00052D02068816889070ED5E18E61B1012D17
:1044F0000AD1216B002509780173216B20680131F5
:104500002163E18E0139E1868168C907E2D0E18F3C
:104510000029DFD0C068A16B01250870A06B0130B5
:10452000A063E08F0138E087D4E700BFFDF720FFEC
:10453000A0EB090040453DD2E08E08B9E08F18B3EA
:104540002068816889070ED5E18E61B1012D0AD1FD
:10455000216B002509780173216B206801312163EB
:10456000E18E0139E1868168C907DFD0E18F00293A
:10457000DCD0C068A16B01250870A06B0130A0637E
:10458000E08F0138E087D1E720460221012243462F
:10459000CDF8009002F024FEB0B1606D40F0200034
:1045A000606520206065002084F85000012003B081
:1045B000BDE8F083012084F85100002084F8500009
:1045C000032003B0BDE8F08340F2B800C2F200005F
:1045D000006849F68171C1F25E61A0FB0101480DDE
:1045E0004FF47A71484302906068B0F5827F0BD136
:1045F0002046802100224346CDF8009002F0F0FDD5
:104600000028CAD121E000BF0298F0B10298013819
:10461000029020688168090617D50299A9B102990C
:1046200001390291816809060FD5029969B1029991
:10463000013902918168090607D5029929B10299C9
:104640000139029180680006DED4A06838B90020E4
:1046500001902068C1680191806801900198012053
:1046600084F85100002084F85000606D002818BFC5
:10467000012003B0BDE8F0837047000070470000E0
:1046800090F83C20012A4FF0020254D010B580F877
:104690003D200268D2F804E0D2F808C00C682EF081
:1046A0007003234341F2FF74C4F20004A24253603A
:1046B0000EDC40F2FF73C4F200039A4216DCB2F142
:1046C000804F2BD040F20043C4F2000324E000BF2F
:1046D00040F2FF33C4F201039A4213DC41F60003B7
:1046E000C4F200039A4219D0002313E040F60003FD
:1046F000C4F200039A4211D040F60043C4F2000312
:104700000AE000BF44F20003C4F201039A4205D05C
:1047100040F20043C4F201039A4204D149682CF0EC
:104720008003194391600121002280F83D1080F838
:104730003C20BDE81040104670470000002804BF30
:104740000120704710B5044690F83D0028B90020BC
:1047500084F83C00204600F01FF8022084F83D0059
:104760002068211D02F06AFE012084F8460084F8CA
:104770003E0084F83F0084F8400084F8410084F84B
:10478000420084F8430084F8440084F8450084F82B
:104790003D00002010BD000082B0006844F20041DE
:1047A000C4F20101884217D040F60041C4F2000172
:1047B000884220D10020019043F64000C4F202005C
:1047C000016841F008010160006800F008000190F4
:1047D000019802B0704700BF0020009043F64000EF
:1047E000C4F20200416841F400314160406800F4C5
:1047F00000300090009802B07047000090F83D1023
:1048000001291CBF01207047022180F83D1000687B
:1048100041F2FF72C168C4F20002904241F001010E
:10482000C1600DDC40F2FF71C4F20001884215DC6A
:10483000B0F1804F2AD040F20041C4F2000123E0E1
:1048400040F2FF31C4F20101884213DC41F600015D
:10485000C4F20001884219D0002113E040F60001A3
:10486000C4F20001884211D040F60041C4F20001B8
:104870000AE000BF44F20001C4F20101884205D001
:1048800040F20041C4F20101884206D1816801F082
:104890000701062904BF00207047016841F00101AB
:1048A000016000207047000090F83C20012A4FF082
:1048B00002026CD080B580F83D20D0F800C04FF6E1
:1048C0007772DCF8083023EA0202CCF808200B6883
:1048D0004F2B29DC1F2B45DD202B46D0302B44D01D
:1048E000402B40F0AF80D1F804E0C968DCF82030FC
:1048F000DCF8202022F00102CCF82020DCF818207F
:1049000022F0F00242EA011123F00A0242EA0E020A
:10491000CCF81810CCF82020DCF8081041F0470142
:1049200021F0300128E000BF6F2B33DDB3F5005FCD
:1049300074D0B3F5805F21D0702B40F08380D1E933
:1049400001E3C968DCF8082043EA0E0322F47F4241
:1049500043EA01211143CCF80810DCF8081041F0BB
:10496000770109E00BB1102B6CD1DCF8081021F0B5
:104970007001194341F00701CCF808100022012111
:1049800080F83D10002180F83C10BDE880401046C2
:10499000704700BF502B21D0602B53D1D1F804E0D9
:1049A000C968DCF82030DCF8202022F01002CCF8B6
:1049B0002020DCF8182022F4704242EA013123F072
:1049C000A00242EA0E12CCF81810CCF82020DCF835
:1049D000081041F0670121F01001CDE7D1F804E0A3
:1049E000C968DCF82030DCF8202022F00102CCF885
:1049F0002020DCF8182022F0F00242EA011123F016
:104A00000A0242EA0E02CCF81810CCF82020DCF89A
:104A1000081041F0570121F02001ADE7D1E901E391
:104A2000C968DCF8082043EA0E0322F47F4243EA17
:104A300001211143CCF80810DCF8081041F4804142
:104A40009AE700BF01229AE77047000070B504465C
:104A50000068C5680669B10716D515F0020113D0C4
:104A60006FF002010161012121778069800703D085
:104A70002046FFF7E9FF05E0204600F069F92046EF
:104A800000F0D8FA00202077700719D515F004003F
:104A900016D020686FF0040101610221217780693E
:104AA00010F4407F04D02046FFF7CEFF06E000BFA1
:104AB000204600F04DF9204600F0BCFA0020207797
:104AC000300717D515F0080014D020686FF00801E2
:104AD000016104212177C069800703D02046FFF7D8
:104AE000B3FF05E0204600F033F9204600F0A2FABB
:104AF00000202077F00619D515F0100016D0206898
:104B00006FF01001016108212177C06910F4407F26
:104B100004D02046FFF798FF06E000BF204600F0D3
:104B200017F9204600F086FA00202077F00718BF1A
:104B300015F0010002D1300609D412E020686FF0B0
:104B400001010161204600F077FA300609D515F021
:104B5000800006D020686FF0800101612046FFF7D9
:104B60008BFD700609D515F0400006D020686FF067
:104B700040010161204600F067FAB00658BF70BDE1
:104B800015F0200008D021686FF0200220460A614D
:104B9000BDE87040FFF772BD70BD000090F83C307A
:104BA000012B04BF022070474FEAB202032A00F231
:104BB000C980F0B5DFE802F0028A3264026840F290
:104BC0000045136A166A23F0020326F001061662F6
:104BD000D2F804E0D2F818C08E6842F48064C4F2BF
:104BE0000105AC4243EA060305D1CE6823F00C036D
:104BF00026F0040633430E68AC4206D1D1E90547DE
:104C00002EF44075254345EA070E2CF07307374311
:104C1000C2F804E097614968516389E0026840F294
:104C20000045136A176A23F4007327F4807717622C
:104C3000D2F804E0D2F81CC08E6842F48064C4F25A
:104C40000105AC4243EA062307D1CE6840F2FF4794
:104C5000360223F44063BE4333430E68AC4206D1B0
:104C6000D1E905452EF44057254347EA051E2CF0AF
:104C700073073743C2F804E0D7614968D16357E04E
:104C8000026840F20047D2F820E0136A42F48066DE
:104C900023F4805313625368D4690D68D1F808C0B7
:104CA000C4F20107BE4204D14E6923F4804343EAB3
:104CB000861324F4E64646EA05265360D661496821
:104CC0002EF4005747EA0C33116431E0026840F2D9
:104CD0000045136A176A23F0200327F010071762B4
:104CE000D2F804E0D2F818C08E6842F48064C4F2AE
:104CF0000105AC4243EA061307D1CE686FF04007C6
:104D000023F0C00307EA061633430E68AC4206D10F
:104D1000D1E905452EF44067254347EA850E2CF47A
:104D2000E64747EA0627C2F804E0976149689163BD
:104D300000211362BDE8F040002280F83C200846C4
:104D4000704700BF0121002280F83C2008467047D0
:104D500070470000002804BF0120704710B50446CA
:104D600090F83D0028B9002084F83C00204600F06F
:104D70001FF8022084F83D002068211D02F05EFB30
:104D8000012084F8460084F83E0084F83F0084F84F
:104D9000400084F8410084F8420084F8430084F81D
:104DA000440084F8450084F83D00002010BD000058
:104DB0007047000090F83C30012B04BF0220704780
:104DC0004FEAB202032A00F2FF802DE9F043DFE848
:104DD00002F003B13F7F00BF036840F200461C6A47
:104DE0001A6A24F0020422F001021A621A46D3F869
:104DF00004C052F818EF8F6843F48065C4F20106CE
:104E0000B54244EA070405D1CF6824F00C0427F02A
:104E100004073C430F68B54206D1D1E905582CF48C
:104E200040762E4346EA080C2EF073063743C3F84B
:104E300004C09F614F6809695F631C629F6947F006
:104E400008079F619F6927F004079F61B1E000BFD9
:104E5000036840F200481C6A1A6A24F4007422F4C1
:104E600080721A621A46D3F804C052F81CEF8F6899
:104E700043F48065C4F20108454544EA072408D19B
:104E8000CF6840F2FF463F0224F4406427EA06065A
:104E90003443D1F80090454506D1D1E905562CF4AC
:104EA00040572E4347EA061C2EF0730747EA0907CE
:104EB000C3F804C0DF614F680969DF631C62DF6902
:104EC00047F00807DF61DF6927F00407DF6170E062
:104ED000036840F20045D3F820C01A6A43F48067A3
:104EE00022F480521A621A465C6852F81C8FD1F87C
:104EF00000E08E68C4F20105AF4204D14D6924F48C
:104F0000804444EA85142CF4005747EA063728F415
:104F1000E64646EA0E265C60DE614E6809691E645C
:104F20001F62DF6947F40067DF61DF6927F480678C
:104F3000DF613DE0036840F200481C6A1A6A24F011
:104F4000200422F010021A621A46D3F804C052F864
:104F500018EF8F6843F48065C4F20108454544EAC0
:104F6000071407D1CF686FF0400624F0C00406EAAA
:104F700007163443D1F80090454506D1D1E90556CE
:104F80002CF440672E4347EA860C2EF4E64747EAA6
:104F90000927C3F804C09F614F6809699F631C62B9
:104FA0009F6947F400679F619F6927F480679F614D
:104FB00009021368194311600021BDE8F043002283
:104FC00080F83C20084670470121002280F83C20F0
:104FD00008467047002804BF0120704710B50446FA
:104FE00090F83D0028B9002084F83C00204600F0ED
:104FF0001FF8022084F83D002068211D02F01EFAEF
:10500000012084F8460084F83E0084F83F0084F8CC
:10501000400084F8410084F8420084F8430084F89A
:10502000440084F8450084F83D00002010BD0000D5
:1050300070470000704700000068B0F1804F18BF53
:105040007047FDF781BC000070470000FEE70000DC
:105050002DE9F04782B0044600689A460B9D0A9EEF
:105060000368914643F48062026002680F4642F48E
:105070008071016020464FF00111002233460095F7
:1050800000F032F950B120680068C00544BF4FF409
:1050900000702064032002B0BDE8F08740F20208EF
:1050A0002068C0F2010807F0FE070761204641466C
:1050B00032462B4600F0FEF920B1012002B0BDE8D7
:1050C000F08700BF0020019020682A4641690191C5
:1050D0008069314601900198204600F09FFAB0B9EE
:1050E0002068BAF1010F09D04FEA19210161204669
:1050F00031462A4600F092FA48B920685FFA89F1F1
:105100000161204631462A4600F088FA60B1206CE1
:105110000428D2D12068016841F4007101600120A7
:1051200002B0BDE8F08700BF206800220168334666
:1051300041F48071016020464FF00111009500F0AC
:10514000D3F800289FD147F0010C2768204641463C
:1051500032462B46C7F810C002B0BDE8F04700F059
:10516000A9B900002DE9F04383B0044600680F465A
:1051700001680A9D0B9E41F480719946904601603A
:1051800020464FF0011100222B46009600F0ACF8AB
:1051900050B120680068C00544BF4FF4007020641F
:1051A000032003B0BDE8F083206807F0FE01016131
:1051B0000221C0F2010120462A46334600F07AF966
:1051C00020B1012003B0BDE8F08300BF00200290B1
:1051D000206832464169029180692946029002980E
:1051E000204600F01BFA58B1206C0428E9D1206851
:1051F000016841F400710160012003B0BDE8F08353
:105200002068B9F1010F0AD04FEA18210161204648
:105210002946324600F002FA0028E5D120685FFAFC
:1052200088F10161002003B0BDE8F08370B5036828
:10523000044653F8140F400711D40E46481C29D0D9
:1052400086BB00BF1868400527D4FDF791F8236896
:1052500053F8140F400737D518684007F2D50020DF
:1052600070BD00BF18684007F9D41868400514D411
:1052700018684007F3D4186840050ED41868400732
:10528000EDD41868400508D4186840074FF00000B6
:1052900048BF70BD18684005E4D56FF480601860A1
:1052A000042012E0154603E053F8140F4007D6D44B
:1052B00018684005F1D4FDF75BF8401B2368B04245
:1052C000F2D958694007EFD4202000212022216321
:1052D00084F83D2084F83E10226C104320640120A5
:1052E00084F83C1070BD00002DE9F04105460068CF
:1052F0001E46144601F47F0201338FB242D0DDF81E
:105300001880B2F5803F40F0878040693840C01B6C
:10531000B0FA80F04009844240F0C8804EB924E0E1
:1053200040693840C01BB0FA80F04009844240F028
:10533000BD80FDF71DF8A0EB08012868B142EFD948
:1053400041693940C91BB1FA81F149098C42E7D161
:105350009BE000BF40693840C01BB0FA80F04009B4
:1053600084424FF0000040F0A280FDF701F8286869
:1053700041693940C91BB1FA81F149098C42E9D12F
:1053800083E000BFB2F5803F24D100BF41693940BE
:10539000C91BB1FA81F149098C4240F0878041690B
:1053A0003940C91BB1FA81F149098C4240F07E8035
:1053B00041693940C91BB1FA81F149098C4275D163
:1053C00041693940C91BB1FA81F149098C42DDD0EC
:1053D0006CE000BF81693940C91BB1FA81F149090C
:1053E0008C4263D181693940C91BB1FA81F1490905
:1053F0008C425BD181693940C91BB1FA81F14909FD
:105400008C4253D181693940C91BB1FA81F14909F4
:105410008C42DFD04AE000BF80693840C01BB0FA40
:1054200080F04009844241D146B923E08069384088
:10543000C01BB0FA80F04009844237D1FCF798FFD6
:10544000A0EB08012868B142F0D981693940C91B35
:10545000B1FA81F149098C42E8D116E080693840FF
:10546000C01BB0FA80F0400984424FF0000018BF22
:10547000BDE8F081FCF77CFF286881693940C91BD1
:10548000B1FA81F149098C42E8D10020202128633A
:1054900085F83D1085F83E00296C41F02001296413
:1054A00085F83C000120BDE8F08100BF0020BDE888
:1054B000F0810000F0B581B0044600681D464369E4
:1054C0008FB203EA0701B94202D1002001B0F0BD5A
:1054D0004169164601323CD0490512D47EB300BF63
:1054E000FCF746FF411B2068B14203D941693940AE
:1054F000B9422BD141693940B942E6D041694905E9
:10550000EED5016841F4007101606FF48061416182
:10551000042000212022216384F83D2084F83E10DD
:10552000226C1043206484F83C10012001B0F0BDCF
:1055300041693940B942C8D041694905E1D4FCF715
:1055400017FF206841693940B942F1D02020E0E7D7
:1055500041694905D5D441693940B942B5D041695D
:105560004905CED441693940B942AED041694905B7
:10557000C7D441693940B942A7D041694905C0D46F
:1055800041693940B942E3D19FE7000070B5044654
:105590000068154650F8143F5A063DD40E4629B906
:1055A00026E000BF50F8141F490635D40168C9062B
:1055B00021D4FCF7DDFE411B2068B142F2D94169DC
:1055C0004906EFD400202021206384F83D1084F8A0
:1055D0003E00206C40F0200018E000BFFCF7C8FE41
:1055E000206850F8141F4906ECD50168490613D409
:1055F0000168C906F2D56FF010010160002020217A
:10560000206384F83D1084F83E00206C2064002064
:1056100084F83C00012070BD002070BD70B50368A7
:10562000044653F8140F000611D40E46481C29D026
:1056300086BB00BF1868400527D4FCF799FE236895
:1056400053F8140F000637D518680006F2D500206D
:1056500070BD00BF18680006F9D41868400514D45E
:1056600018680006F3D4186840050ED418680006C0
:10567000EDD41868400508D4186800064FF0000003
:1056800048BF70BD18684005E4D56FF480601860AD
:10569000042012E0154603E053F8140F0006D6D498
:1056A00018684005F1D4FCF763FE401B2368B04244
:1056B000F2D958690006EFD420200021202221636E
:1056C00084F83D2084F83E10226C104320640120B1
:1056D00084F83C1070BD000088B0072005F0DEFCA7
:1056E00040F2C83BC2F2000B9BF8060001308BF879
:1056F0000600FBF7C1F850B1642005F0CFFCFBF7C2
:10570000BBF80028F8D102E0642005F0C7FC05F0E2
:105710003BFC0028F8D140F29C45C2F2000505F19F
:105720001400291D05F110020490CDE90221FBF7B8
:10573000BBF805F055FA42F2A0504FF690029FEDEB
:105740003F0ADFED3F0AC2F20000C0F6000200216E
:1057500000F092FE40F24047C2F2000707F13C041D
:105760000BF16C090BF13C0120464A4607F074FC32
:105770009BED0F0A9BED101A9BED112A002087ED7F
:10578000000A87ED011A87ED022A8BED040A8BEDE2
:10579000051A8BED062A05F0BDFC06F0B3FBCBF82D
:1057A0001C0042F27040C2F200001021C161FEF7FD
:1057B000CFFC002818BFFBF7C5FC40F22006C2F260
:1057C0000006301D0BF12801082201F06FFC0120BA
:1057D0008BF8040046F6D940CBF68F3040F6727154
:1057E00046F6B01205F13803CBF6B321C3F62132E9
:1057F00007C30BF1480007900BF1500040F28C18E2
:105800009FEDF1AA9FEDF1BA9FEDF1CA9FEDF18AEC
:1058100006900BF14C009FEDF0DA9FEDF0EA9FED62
:10582000E89A9FEDE8FA0BF1600AC2F200080590D1
:105830000BF122000190009430E100BF00A08C45E4
:105840000080894541F2873005F050FBD5ED050A0F
:10585000D5ED061AD6ED062AD6ED073A95ED077A6C
:10586000D6ED084A61EEA33A60EEA22A72EEA32AB0
:1058700067EE243A95ED015A95ED026AD6ED0F5A7E
:1058800073EEA22AD6ED103A95ED034AD6ED114AF1
:10589000CBED182A66EE232A65EE253A97ED093AF4
:1058A00073EEA22A64EE243A73EEA22A97ED141A3C
:1058B00097ED152A33EE223AD8ED002AD8ED013AB9
:1058C00097ED160AD8ED024A62EE233A61EE222ADB
:1058D00072EEA32A60EE243AD7ED0C4A73EEA22AA8
:1058E00074EEA22ACBED1B2AD6ED092AD6ED0A3A90
:1058F000D6ED0B4A61EEA33A60EEA22A72EEA32A1D
:1059000067EE244AD6ED123A74EEA22AD6ED134A77
:10591000CBED192A66EE242A65EE233A73EEA22A0D
:10592000D6ED143AD8ED035A64EE233AD7ED0A4A7D
:1059300073EEA22AD8ED043A74EEA22A62EE233A5C
:1059400061EE254A74EEA33AD8ED054AD7ED0D5A1B
:1059500060EE244A74EEA33A75EEA33ACBED1C3AFE
:10596000D6ED0D3AD6ED0C4A61EEA31AD6ED0E3AFD
:1059700060EEA40A70EEA10A27EE237A37EE207AB1
:105980008BED1A7A96ED167AD6ED150A26EE076A91
:1059900096ED177A25EE205A35EE065A24EE074A80
:1059A00097ED0B6A34EE054A98ED075A36EE044A35
:1059B00098ED066A22EE052A98ED085A21EE061A9D
:1059C00031EE021A20EE050A97ED0E2A30EE010A9A
:1059D00032EE000A8BED1D0A97ED000A9BED041ACA
:1059E0008BED040A21EE0A1A20EE0B0A30EE010AB2
:1059F00023EE0C1A31EE000A87ED000A97ED010A3A
:105A00009BED051A8BED050A21EE0A1A20EE0B0A12
:105A100030EE010A22EE8C1A31EE000A87ED010AFF
:105A200097ED020A9BED061A8BED060A21EE0A1A83
:105A300020EE0B0A30EE010A24EE0C1A31EE000AB9
:105A400087ED020A2046B0EE480A51463A464B46D8
:105A50008BED0F3ACBED102A8BED114A07F04AFC83
:105A60000799DDE90532204608F05AF99BED120A44
:105A70009BED131A9BED142A20EE0D0A21EE0D1A50
:105A800022EE0D2A80EE0E0A81EE0E1A82EE0E2A0A
:105A90008BED150A8BED161A8BED172A01204FF0AE
:105AA000FF3105F001FE0128F8D19BF80000400706
:105AB00021D59BF8000000F0FB01584600F8291B97
:105AC0000499FAF7B1FE95ED050A95ED061A95EDE4
:105AD000072A95ED0E3A95ED0F4A95ED105A30EEE6
