:020000040800F2
:10000000C87400205502000805340008B530000807
:1000100001340008AD080008A95F000800000000D6
:10002000000000000000000000000000B1350008E2
:10003000350900080000000021340008E1350008FF
:100040006F0200086F0200086F0200086F020008CC
:100050006F0200086F0200086F0200086F020008BC
:100060006F0200086F0200086F0200086F020008AC
:100070006F0200086F0200086F0200086F0200089C
:100080006F0200086F0200086F0200086F0200088C
:100090006F0200086F0200086F0200086F0200087C
:1000A0006F020008CD3600086F0200086F020008DA
:1000B0006F0200086F0200086F0200086F0200085C
:1000C0006F0200086F0200086F0200086F0200084C
:1000D0006F0200086F0200086F0200086F0200083C
:1000E0006F0200086F0200086F0200086F0200082C
:1000F0006F0200086F0200086F0200086F0200081C
:100100006F0200086F0200086F0200086F0200080B
:100110006F0200086F0200086F0200086F020008FB
:100120006F0200086F0200081D0900082909000875
:100130006F0200086F0200086F0200086F020008DB
:100140006F0200086F0200086F02000809340008FF
:100150006F0200086F0200086F0200086F020008BB
:100160006F0200086F0200086F0200086F020008AB
:100170006F0200086F0200086F0200080000000014
:100180006F0200086F02000800F002F800F052F859
:1001900014A696E8000CB244B344DA4501D100F04D
:1001A00049F8BAE80F000FA696E83000A5EB040561
:1001B00004EB0607AAEB0704A7F101074FEA1515A0
:1001C0004FEA3414A4F10104AC4201D300F032F838
:1001D00013F0010F18BFFB1A43F0010300F001F800
:1001E000DBE718473871000058710000103A24BF4F
:1001F00078C878C1FAD8520724BF30C830C144BF8C
:1002000004680C6070470000704700000023002461
:1002100000250026103A28BF78C1FBD8520728BF16
:1002200030C148BF0B6070471FB507F03CF81FBDD9
:1002300010B510BD00F0D0F81146FFF7F5FF06F03D
:10024000EBF800F0EEF803B4FFF7F2FF03BC00F0A8
:10025000F5F800000948804709480047FEE7FEE737
:10026000FEE7FEE7FEE7FEE7FEE7FEE7FEE7FEE766
:1002700004480549054A064B70470000B936000896
:1002800089010008C86E0020C8740020C8700020D2
:10029000C870002053EA020C00F069802DE9F04B91
:1002A0004FF00006002B1FBFB3FA83F503FA05F4E5
:1002B00024FA05F65E4012BF1643B2FA82F502FA3E
:1002C00005F4C5F120051EBF22FA05FC44EA0C0422
:1002D000203556EA044C4FEA144418BF641C4FF012
:1002E00000084FF00009904271EB030C39D300294C
:1002F00019BFB1FA81F701FA07F6B0FA80F700FAF0
:1003000007F6C7F120071EBF20FA07FC46EA0C06D5
:100310002037B6FBF4FCA7EB0507103F07F01F0BD7
:10032000CBF120062CFA06F60CFA0BFB44BFB346C1
:100330000026202FA4BF5E464FF0000B5BEA060CA0
:1003400008BF4FF0010B19EB0B0948EB0608ABFB9C
:10035000027C06FB02CC0BFB03CCC01B71EB0C0137
:10036000C1E70B46024641464846BDE8F08B13B54F
:10037000084318BF4FF0FF300146AFF30080BDE8DF
:100380001C4070474FF0000200B513469446964655
:10039000203922BFA0E80C50A0E80C50B1F1200198
:1003A000BFF4F7AF090728BFA0E80C5048BF0CC046
:1003B0005DF804EB890028BF40F8042B08BF7047A4
:1003C00048BF20F8022B11F0804F18BF00F8012B16
:1003D0007047704770477047754600F02BF8AE467F
:1003E00005006946534620F00700854618B020B541
:1003F000FFF73EFFBDE820404FF000064FF000073A
:100400004FF000084FF0000BAC46ACE8C009ACE878
:10041000C009ACE8C009ACE8C00921F007018D466D
:10042000704710B50446AFF300802046BDE8104089
:10043000FFF709BF00487047080100200149182054
:10044000ABBEFEE726000200704700000020C4F2A9
:1004500002001021012200F0EBBC00000020C4F2D9
:1004600002001021002200F0E3BC000070470000F1
:1004700040F20040C4F202000121012200F0D8BC89
:1004800040F20040C4F202000121002200F0D0BC82
:1004900070470000002808BF7047B0B54EF2180141
:1004A00049F24002CEF2000110F0030CC0F2020249
:1004B00022D051F804EC0C68002307E023445B1BB6
:1004C000A54228BF734493422C460DD20D68A54225
:1004D000F4D10D68A542F1D10D68A542EED10D68A9
:1004E000A542F3D0EAE700BFBCF1010F08D1A0F1AB
:1004F000010C042851D247E0844604284DD243E041
:1005000051F804EC0C68002308E000BF23445B1B97
:10051000A54228BF734493422C460DD20D68A542D4
:10052000F4D10D68A542F1D10D68A542EED10D6858
:10053000A542F3D0EAE700BFBCF1020F04D1A0F15D
:10054000020C042829D21FE051F804CC0D680023C6
:1005500008E000BF2B441B1BAC4228BF63449342FE
:1005600025460DD20C68AC42F4D10C68AC42F1D1F6
:100570000C68AC42EED10C68AC42F3D0EAE700BFA5
:10058000A0F1030C042808D2BDE8B040704700BFBA
:10059000ACF1040C5FEA0C40F6D051F8040C0D6885
:1005A000002307E02B441B1BAC4228BF03449342AB
:1005B00025460DD20C68AC42F4D10C68AC42F1D1A6
:1005C0000C68AC42EED10C68AC42F3D0EAE700BF55
:1005D00051F8040C0D68002308E000BF2B441B1BDE
:1005E000AC4228BF0344934225460DD20C68AC426E
:1005F000F4D10C68AC42F1D10C68AC42EED10C687D
:10060000AC42F3D0EAE700BF51F8040C0D680023B8
:1006100008E000BF2B441B1BAC4228BF034493429D
:1006200025460DD20C68AC42F4D10C68AC42F1D135
:100630000C68AC42EED10C68AC42F3D0EAE700BFE4
:1006400051F8040C0D6800230AE000BF2B441B1B6B
:10065000AC4228BF034493422546BFF499AF00BF84
:100660000C68AC42F2D10C68AC42EFD10C68AC42E1
:10067000ECD10C68AC42F3D0E8E7000080B54EF254
:100680001801CEF20001A82251F804CC00FB02FEB2
:10069000086800230AE000BF03449B1A824228BF77
:1006A00063447345104628BF80BD00BF0A6882427C
:1006B000F2D10A688242EFD10A688242ECD10A681C
:1006C0008242F3D0E8E7000010B5FFF7CFFEFFF756
:1006D000DFFE05F06BFC044605F092FD204310BDE3
:1006E0002DE9F04F83B002920E460190FFF7B6FE5F
:1006F000922000F0C3F8922000F0C0F8552000F0DE
:10070000BDF88046552000F0B9F80546552000F0A8
:10071000B5F88246552000F0B1F80446552000F0A7
:10072000ADF88346552000F0A9F80746FFF78EFE86
:1007300048EA052040F2080900B2C2F2000900EEC2
:10074000100A99ED001AB8EEC00A4AEA042021EE18
:10075000000A00B286ED000A00EE100A4BEA0720FC
:1007600000B299ED001A02EE100AB8EEC00AB8EE17
:10077000C22A21EE000A21EE021A86ED010A86ED58
:10078000021AFFF77DFE802000F078F8552000F077
:1007900075F80646552000F071F8552000F06EF807
:1007A0008246552000F06AF80546552000F066F8AC
:1007B0008346552000F062F80446552000F05EF8AC
:1007C0000746552000F05AF88046FFF751FE0F2EDD
:1007D00025D14AEA052000B200EE100A99ED011A6F
:1007E000B8EEC00A01994BEA042021EE000A00B2DB
:1007F00081ED000A00EE100A47EA082000B299EDE8
:10080000011A02EE100AB8EEC00AB8EEC22A21EEB2
:10081000000A21EE021A81ED010A81ED021AFFF7AA
:100820001DFEA22000F02AF8A22000F027F8552093
:1008300000F024F8044646B2552000F01FF80546A3
:10084000FFF704FEE00040EA55104FF60001CFF636
:10085000FF71002E48BF084300EE100AB8EEC00A30
:10086000B4EE001A20EE010AB3EE071A029830EE39
:10087000010A80ED000A03B0BDE8F08F80B582B0B8
:100880008DF8070041F6F8604FF47A7CC2F2000060
:100890000DF107010DF106020123CDF800C001F0B2
:1008A000C3FF9DF8060002B080BD0000FEE7000017
:1008B000002070470020704710B541F27864C2F202
:1008C000000440F67861C2F200012046002203F0E5
:1008D00071F940F27861C2F20001204603F05CF940
:1008E000002010BDB0B541F27865C2F200050C469B
:1008F0000146284603F050F9284603F027F92068FE
:1009000045F66C41C2F20001A1F800080122002066
:1009100081F80228B0BD00000020704741F6541055
:10092000C2F2000000F00CB841F6B410C2F20000B0
:1009300000F006B87047000072B600BFFEE7000086
:10094000F0B581B00021009140F22C01C2F200010B
:100950000B68D0E9166148F2B51537680822C1F670
:100960004E358A403A42A3FB05350CD003681C681B
:10097000640708D51C6824F004041C60B260426D52
:1009800042F00102426501228A403A4208D00368DF
:100990005B691B0604D5B260426D42F002024265FB
:1009A00004228A403A4208D003681B689B0704D59A
:1009B000B260426D42F00402426510228A403A421F
:1009C00019D001680B681B0715D5B2600B680A685F
:1009D0005B0309D4D20509D40A6822F008020A6030
:1009E000016C29B907E000BF110341D4016C11B1BA
:1009F000044688472046C26D202101FA02F33B429B
:100A000043D001680F68FF063FD5B36090F835709A
:100A10000B68052F1CD123F016030B604B6923F0E4
:100A200080034B61036C0BB9836C1BB10B6823F023
:100A300008030B603F219140B160012180F835101F
:100A4000016D0022002980F8342054D158E000BF05
:100A50000A685B0310D4D20512D40A6822F010028F
:100A60000A60012180F83510002180F8341007E079
:100A7000816C0029BCD1BEE7110301D4416C00E0B8
:100A8000C16B11B1044688472046416DC1B3416D29
:100A9000C9072ED0052180F835100168AA0A0B6815
:100AA00023F001030B60009B0133934200931AD89B
:100AB0000B68DB0717D0009B01339342009312D8D9
:100AC0000B68DB070FD0009B0133934200930AD8D9
:100AD0000B68DB0707D0009B01339342009302D8D9
:100AE0000B68DB07DFD1012180F83510002180F889
:100AF0003410C16C21B101B0BDE8F040084700BF1F
:100B000001B0F0BD2DE9F041044600F097F9ECB1D9
:100B10000546022084F835000020216884F834005E
:100B2000086820F00100086021680868C00711D03B
:100B300000F084F9401B0528F6D903252023032063
:100B4000636584F83550BDE8F08100BF0120BDE841
:100B5000F08100BF086848F23F02CFF21002D4E9EA
:100B6000013500EA020C04F10C0898E8C10143EADF
:100B70000C032B431843D4E9072E3043384310436A
:100B8000626A40EA0E00042A40EA08031CD1206B86
:100B9000D4E90A2E40EA0E00184308604869BEF105
:100BA000000F20F0030040EA020040F0040C11D0D6
:100BB000B8F5005F36D0B8F1000F45D1022A46D013
:100BC000012A3BD032B942E00B60486920F00700AF
:100BD00040EA020C01F0F8004AF6AB221038CAF6DF
:100BE000AA22A0FB02231A0947F2D823C1F814C095
:100BF000C0F600039A5C40F2FF335F284FF03F00DD
:100C000021EA030100FA02F088BF0431C4E9161298
:100C10008860002301250020636584F83550BDE815
:100C2000F08100BF032AD5D8012540230120DFE849
:100C300002F0030E030500BF82E700BFAEF1C070F3
:100C4000B0FA80F0400904E0032A04D3C2D1CEF305
:100C500000600028BED0012540230120636584F890
:100C60003550BDE8F0810000B0B5044600F0E6F86C
:100C7000054640F20000C2F200000078611C18BF77
:100C8000044400BF00F0DAF8401BA042FAD3B0BD24
:100C90002DE9F04F83B000F1200200F13E4741F60C
:100CA0000045009207F1FF77C4F2020508224FEADF
:100CB000B726A84208BF072200254FF000084FF0D2
:100CC0000009072E38BF4FEAB72201920AE000BFA1
:100CD00009F1010908F10208B9F1100F05F1040545
:100CE00000F0A2800F68012202FA09FE17EA0E0A3C
:100CF000EED0D1F804C003220CF003077E1E02FAE6
:100D000008F4012E6FEA040B12D88468CE6804EA56
:100D10000B0406FA08F634438460446824EA0E069D
:100D2000CCF3001404FA09F42643466004E000BF43
:100D3000032F01D103271EE0C6688C6806EA0B0664
:100D400004FA08F42643022FC66014D16FF00302A0
:100D5000009E02EA590756F807C005F01C040F224E
:100D60000B69A2402CEA0202A3401A43F251D1F8C7
:100D700004C00CF00307026807FA08F302EA0B024A
:100D80001A431CF4403F0260A2D0002243F6440301
:100D90000292C4F202031A6843F6004442F480420D
:100DA0001A601A68C4F2010402F480420292029AA4
:100DB00029F003024FF6084C2244CFF6FF7C52F88C
:100DC0000C3005F00C070F26BE40B343019E06FA17
:100DD00007F73B4342F80C30A2684B6842EA0A0727
:100DE00043F60C4CDE0258BF22EA0A07A760C4F2A1
:100DF000010CDCF800209E0242EA0A0758BF22EAF2
:100E00000A07CCF8007062689E0342EA0A0758BFDE
:100E100022EA0A0767602268DB0342EA0A0758BF32
:100E200022EA0A07276053E703B0BDE8F08F00000D
:100E3000002A08BF090481617047000046F670402F
:100E4000C2F200000068704740F2000046F67041B0
:100E5000C2F20000C2F2000100780A681044086083
:100E60007047000080B543F60040C4F202000168FC
:100E700041F400710160016841F480610160016822
:100E800041F480710160032000F0BCF80F2000F0F5
:100E900005F800F057F8002080BD0000B0B586B01E
:100EA000002543F644010195C4F202010A68044694
:100EB00042F001020A60096801A801F001010191F4
:100EC0000199694601F078F901F09CF94DF68361CA
:100ED000C4F21B31A0FB01014FF0FF3000EB914148
:100EE00041F650700022C2F20000C4F2010240F24A
:100EF000E733C0E90021C0E902530561856101F0D3
:100F000037FE08B106B0B0BD41F65070C2F2000025
:100F100001F080FE0028F5D1192000F035F80F2CE3
:100F20000CD819202146002200F040F840F20401BC
:100F30000020C2F200010C6006B0B0BD012006B076
:100F4000B0BD000082B0002043F640010190C4F221
:100F500002014A6842F480424A604A6802F48042D0
:100F60000192019A00900868002240F080500860C9
:100F700008680F2100F08050009000986FF0010089
:100F800002B000F013B80000002848BF704700F01E
:100F90001F01012202FA01F11C2202EAD0004EF2E6
:100FA0000012CEF2000281507047000010B54EF6DC
:100FB0000C5CCEF2000CDCF80030C3F3022E8EF095
:100FC0000704042C28BF0424BEF103034FF0FF3EA6
:100FD0000EFA04F438BF0023A14399400EFA03F33C
:100FE0009A43114300F00F0200F160430901043AF3
:100FF00003F564436244002848BF02F10C031970F2
:1010000010BD00004EF60C51CEF200010A684FF6FA
:10101000FF031A4060F30A2242F0806040F0FD7046
:1010200008607047704700000268002051627047F6
:101030002DE9F041D0F80080D8F8243091B1D8F8EB
:101040002870B1F1010C03EB17414FD05FFA8CF718
:1010500008F58273042F0CF0030E0BD20027002436
:101060002BE000BF43EA02410020C8F82810BDE889
:10107000F08100BF0CF0FC0508F1F406002400BF6D
:1010800056F8107F44F0020001EB174144F00107CD
:10109000FFB253F82770C0B253F8200001EB17419C
:1010A00001EB104044F00301C9B253F8211004349D
:1010B000E7B2AF4200EB1141E2D1BEF1000F15D013
:1010C00053F82700BEF1010F01EB10410ED0601C58
:1010D000C0B253F82000BEF1020F01EB104105D061
:1010E000A01CC0B253F8200001EB104141EA0240BD
:1010F00008EB8C01C1F804010020BDE8F08100007C
:10110000D0F8E00403F0E6B801EBC102D0F8E03417
:1011100000EB8200026A184603F040B801EBC102FE
:10112000D0F8E03400EB8200D0F86022184603F0DB
:1011300093B80000D0F8E00403F0CEB810B54FFA31
:1011400081FC4FF4157201F00F0EBCF1000F48BF87
:10115000142290F8944402440EEBCE034FEAD11CC3
:1011600002EB8301012C81F801C002F823E004BFE7
:10117000022010BD0268012380F894340446104612
:1011800003F0A8FE002084F8940410BDB0B50379E4
:1011900001F00F029A4284BF0120B0BD4BB24FF460
:1011A0001574002B48BF142400EB040E90F89444EF
:1011B00002EBC2034FEAD11C0EEB8301012C4FF06E
:1011C000000481F801C08C700EF8232004BF0220B7
:1011D000B0BD0268012380F894340546104604F03F
:1011E0006DF9204685F89444B0BD000001F00F0170
:1011F00001EBC10100EB8100D0F8680270470000EC
:1012000010B54FFA81FE01F00F0CBEF1000F6FF325
:10121000DF220CEBCC010DD400EB810E00240EF587
:1012200015718EF855428EF854C2CEF85C228EF8B5
:10123000583209E000EB810101F814CF01244C7011
:101240008A600B71A1F81AC0022B04BF00224A71F8
:1012500090F89424012A04BF022010BD02680123E3
:1012600080F894340446104603F0A6FC002084F86D
:10127000940410BD10B501F00F0E0EEBCE0100EB83
:1012800081044FF0000CC4F868C284F855C290F88D
:1012900006C004F51571C4F86022C4F86432BCF1CC
:1012A000010F84F854E208BFCA610068624604F086
:1012B0004FF9002010BD0000B0B5027901F00F0415
:1012C00094424FF001022CD84BB24FF41575002B0D
:1012D00048BF14254FEAD11C48BF2146054401EB05
:1012E000C10305EB830181F801C090F894C48A70B2
:1012F000BCF1010F05F8234004BF0220B0BD026815
:101300000123054680F89434104604F001F92CB905
:101310002868A97905F29C4204F0A2F8002285F819
:1013200094241046B0BD000001F00F0C0CEBCC0172
:1013300000EB810101F814CF4FF0000C0B618379B1
:10134000C1F814C04FF0010CCA60012B81F801C034
:1013500008BFCA6180B500681A4604F0F9F8002099
:1013600080BD00002DE9F04F87B005688246284611
:1013700004F00AFB10B107B0BDE8F08FDAF8000006
:1013800004F030FB0028F6D0D5F80808C0F30D2192
:10139000DAF80000CAF8D41404F024FB0146DAF8A5
:1013A0000000890703D5416901F00201416105F59B
:1013B0000061049104F016FB0146DAF80000C9064A
:1013C000059535D5816921F0100181612C6A04F001
:1013D0000F0000EBC0000AEB8001C4F34340062875
:1013E00001F5157512D002281BD147F6F07014EAEA
:1013F000000616D0E96834090598224604F0F6FA8A
:10140000E86800EB1610E86008E000BF05980AF2F3
:101410009C41082204F0EAFAC4F30A1468692044E3
:101420006861DAF80000816941F010018161059D71
:1014300004F0D8FA000340F1F180DAF8000004F07B
:10144000AFFA002800F0EA8006460AF29C404FF40A
:10145000306800244FF0000B069019E005EB0800FF
:1014600002218160B80642BF05EB0800202181609F
:10147000B80442BF05EB08004FF4005181600BF146
:10148000010B760808F1200804F1240400F0C6805E
:10149000F007F4D0DAF800005FFA8BF9494604F05F
:1014A00099FA0746C00760D005EB0800012181606A
:1014B000DAF8000008EB0001036C8A689AF806501D
:1014C000012D25D1150733D4950600F19F8043F2F5
:1014D0000B05C4F65475AB42059D02D312F40042CD
:1014E00030D10AEB0402D2F8743209696FF3DF419C
:1014F000A3EB0101C2F868129CBBD2F86432002B46
:1015000000F08A80D2F860020844C2F8600228E045
:1015100043F20B05C4F65475FF35AB4218D1059D57
:1015200010040FD4900644BF2020886019E000BF4B
:1015300043F20B00C4F65470059D834215D312F498
:10154000004012D04FF40040886038070FD43DE0CF
:10155000059D34B9DAF8641219B90021069A03F02E
:101560007FFF50464946FFF7D9FD38072ED505EBDA
:10157000080008218160DAF8000043F20B02056CD4
:1015800040448168C4F6547295420BD311F4004173
:1015900008D04FF400418160504600F019FD059DD0
:1015A0000AE000BF504600F013FD43F20B00C4F602
:1015B00054708542059D09D39AF80600012805D18B
:1015C000DAF80000069A012103F04AFFF80642BF4C
:1015D00005EB080010218160B8077FF543AF68690B
:1015E000000604D50499486840F4806048600AEB1E
:1015F000040090F8571201297FF430AF002180F8E1
:1016000057125046494600F031FB27E720208860FA
:10161000059D3807ABD4D9E701219FE7DAF8000030
:10162000CDF818A004F0DEF9400340F1D38006980D
:10163000006804F0ADF9002800F0CC80064606985A
:1016400005F5106900F1140100F29C400027039198
:101650000190CDF8089004E0760807F1010700F04A
:10166000B980F007F8D006985FFA87FA006851460B
:1016700004F09EF90446C00726D0049A07F00F0034
:10168000516B012303FA00F021EA0000506309EBDB
:101690004710836006988079012811D1039907EBE0
:1016A000C70001EB8000D0E902121144C1603FB9CC
:1016B000006928B90698019A0068012103F0D0FE5C
:1016C00006985146FFF720FD200742BF09EB47105F
:1016D00008218160E00642BF09EB471010218160BC
:1016E000600642BF09EB471040218160A00716D574
:1016F0002846394604F0DAF8039907EBC70001EBF6
:10170000800010F8031F012905D1002101700698FF
:10171000514600F0A7FA09EB47100221816020062C
:101720009AD5039907EBC70001EB8008D8E904209C
:10173000824291D30699D8F808300C68111A994260
:1017400038BF0B4604EB4711D1F818C903F1030E5B
:101750001FFA8CF3B3EB9E0F2DD301F5106900BF78
:10176000D8F81020824224D9101A069AD8E902B17A
:101770009579584538BF83461FFA8BF32046524669
:101780000095059D04F0DAFBD8F80C00D8F8141089
:101790005844C8F80C0001EB0B00C8F81400D9F845
:1017A00018100BF1030289B2B1EB920FD8D2D8F81E
:1017B0001020DDF8089082423FF64EAF07F00F0090
:1017C000D4F83418012202FA00F021EA0000C4F82B
:1017D000340841E7DDF81890D9F8000004F002F968
:1017E000002821D4D9F8000004F0FCF800053AD410
:1017F000D9F8000004F0F6F8C00445D5049948680B
:1018000020F001004860D9F80000102104F04EF8E3
:1018100099F80400010600F0EC80C1B2042900F040
:10182000030035D200219AE00499486820F00100B5
:10183000486099F8CC04012808D1002089F8CC042C
:1018400048460021FFF7EEFB03E000BF484600F0EA
:10185000A3FBD9F80000416901F00041416104F0A7
:10186000C1F80005C4D504988068C00702D0484676
:1018700000F0D6FBD9F80000416901F40061416134
:1018800004F0B0F8C004B9D4D9F80000DDE000BF1E
:101890006FF0600202EA411200234FF67F37002109
:1018A000EE18C6F80879D6F80059803325F40015EB
:1018B000C6F80059C6F8087BD6F8005B9A4225F4B2
:1018C0000015C6F8005BD6F8005B01F1040145F095
:1018D0000065C6F8005BC6F82879D6F8205925F4CB
:1018E0000015C6F82059C6F8287BD6F8205B25F4E9
:1018F0000015C6F8205BD6F8205B45F00065C6F8F9
:10190000205BC6F84879D6F8405925F40015C6F88A
:101910004059C6F8487BD6F8405B25F40015C6F858
:10192000405BD6F8405B45F00065C6F8405BC6F802
:101930006879D6F8605925F40015C6F86059C6F8DC
:10194000687BD6F8605B25F40015C6F8605BD6F8B6
:10195000605B45F00065C6F8605B059DA0D100287E
:1019600047D005F5106202EB41134FF67F374E0169
:101970009F609559059B25F4001503F5306395513B
:1019800003EB4115AF609D59012825F400159D51C9
:101990009D5945F000659D512BD04E1C02EB46141D
:1019A0007501A760545903EB461624F400145451F2
:1019B000B7605F59022827F400175F515F5947F05D
:1019C00000675F5115D0881C02EB40174FF67F3639
:1019D0004101BE60575803EB401027F400175750E1
:1019E0008660585820F400105850585840F0006055
:1019F0005850049F8421F869442240F00110F86196
:101A000099F80F0000284FF00B0008BF142108BF01
:101A100042F22B007B5808BF102218437850B85868
:101A200040F00B00B850386809F29C4220F4FE6088
:101A30003860D9F8000099F8061003F011FDD9F8C4
:101A40000000416901F48051416103F0CBFF014680
:101A5000D9F8000089041AD503F0F0F8D9F800008D
:101A600003F084FFD9F8004089F8070000F0C4FBB8
:101A700099F807200146204604F0D4F9484600F0C2
:101A800075FAD9F80000416901F40051416103F091
:101A9000A9FF000706D4D9F8000003F0A3FF000651
:101AA0000DD437E0484600F07BFAD9F800004169D0
:101AB00001F00801416103F095FF00062AD5059960
:101AC000886920F08000886199F80400022821D3F9
:101AD00009F5157409F11405012640F27B2704E08D
:101AE0000136864207F1240714D219F8071001299C
:101AF000F6D106F00F0000EBC0023006D9F8000066
:101B000005EB820158BF04EB820103F03FFE99F818
:101B10000400E5E7D9F8000003F064FFC0024BD4ED
:101B2000D9F8000003F05EFF059D80027CD599F88E
:101B30000410022926D305F53260013909F51F7218
:101B4000012304E02030013902F124021AD0076891
:101B50001678012EF6D1B7F1FF3FF3DCD9F8D46443
:101B600086EA1747FF07EDD102F8013CAF6947F05D
:101B70008007AF616F693F06E4D40499486840F478
:101B800000704860D9F80000416901F4001141611A
:101B900003F028FF40004DD54846FFF7B1FAD9F8C9
:101BA0000000416901F08041416103F01BFF4007E3
:101BB0007FF5E1AB45E000BF99F80400022827D388
:101BC000059909F1140401F5126509F13B064FF07E
:101BD0000108012706E000BF01372035874206F1E2
:101BE000240615D229687278012AF5D1B1F1FF3F98
:101BF000F2DC07F00F0000EBC001D9F8000004EBA5
:101C0000810186F8008003F0C1FD99F80400E3E744
:101C1000D9F80000416901F48011416103F0E2FE4E
:101C2000059D80023FF583AFD9F8000003F0DAFE8E
:101C30004000B1D4D9F8000003F0D4FE40077FF58E
:101C40009AABD9F800004468610704D54846FFF70D
:101C500071FAD9F8000041682143416007B0BDE83E
:101C6000F08F0000D0F8E00402F09ABBD0F8E00456
:101C700002F0ACBB002804BF01207047F0B581B072
:101C80000446056890F8950428B9002084F8940467
:101C9000204600F027F90320B5F1A04F84F8950401
:101CA00004BF0020A071206803F0D2FB94E80F006D
:101CB000267C009602F0D2FF002840F000812068C8
:101CC000002103F0E9FE002840F0F98094F804E0D8
:101CD000BEF1000F00F0EC800EF0030CBEF1040F1B
:101CE0004FF0000240D30EF0FC03A4F1900003215A
:101CF000012500BFCE1E80F8A460A0F8BE608E1E35
:101D000080F8C860A0F8E2604E1E80F8EC60A0F891
:101D1000066180F81011A0F82A110E1D013180F81B
:101D2000A55080F8A820C0E92B22C0F8B42080F884
:101D3000C95080F8CC20C0E93422C0F8D82080F8FF
:101D4000ED5080F8F020C0E93D22C0F8FC2080F87A
:101D5000115180F81421C0E94622C0F820219030AA
:101D600099423146C6D1F21EBCF1000F31D004F1C8
:101D7000140002EBC20100EB8105012300F82120D1
:101D80000021BCF1010F6B706A832971C5E9021152
:101D900029611ED0551C05EBC50600EB8607BCF17A
:101DA000020F7B7000F826507D833971C7E902115C
:101DB00039610ED0911C01EBC10200EB82030125B9
:101DC00000F8221000205D7059831871C3E90200E9
:101DD0001861BEF1000F6BD0BEF1040F4FF000028E
:101DE00036D30EF0FC000321234600BFCF1E83F83C
:101DF00054728F1E83F878724F1E83F8C0120D1D27
:101E0000013183F8552283F85822C3E99722C3F899
:101E1000642283F8792283F87C22C3E9A022C3F8E4
:101E2000882283F89D2283F89C7283F8A022C3E95C
:101E3000A922C3F8AC2283F8C12283F8C422C3E9E3
:101E4000B222C3F8D022903381422946CED1EA1E75
:101E5000BCF1000F2CD004F5157002EBC20300EBAF
:101E600083070021BCF1010F797000F8232039713C
:101E7000C7E9021139611BD0531C03EBC30700EB08
:101E80008706BCF1020F717000F827303171C6E986
:101E9000021131610CD0911C01EBC10200EB8203F5
:101EA00000275F7000F822101F71C3E902771F61DD
:101EB00094E80F00277C009703F06EF830B1022001
:101EC00084F89504012001B0F0BD00BF00206074CB
:101ED000012084F89504206803F04EF8002001B03A
:101EE000F0BD0000B0B586B000680024B0F1A04F8E
:101EF0000594CDE903440294019401D006B0B0BD2D
:101F000043F630050094C4F20205286801A940F0A8
:101F100001002860286800F00100009000984FF44C
:101F2000C05001900220CDE90204032004900A2051
:101F300005900020C4F20200FEF7AAFE68680521A1
:101F400040F08000686000946869002240F480409E
:101F50006861686900F48040009000984320FFF7B2
:101F600025F84320FFF710F806B0B0BD10B50446C1
:101F7000C07928B1022801D0FEF7DEFC012100E083
:101F80000021D4F8E00402F0A9FAD4F8E004BDE896
:101F9000104002F057BA0000D0F8E00402F084BA12
:101FA000D0F8E00402F08ABA90F89424012A04BF21
:101FB0000220704710B5012280F894244174026811
:101FC0000446104603F01CFF002084F8940410BD62
:101FD000D0F8E02400F29C41104602F095BA0000CF
:101FE00010B5044690F89404012804BF022010BDE7
:101FF0002068012184F89414C168490606D5617BE4
:10200000012903D1816B41F48031816303F046FCE7
:10201000206802F0A1FF002084F8940410BD0000A5
:1020200010B50446D0F8E00402F0C4FA2068D0F8F5
:10203000001E41F00101C0F8001EE07A002808BF30
:1020400010BD4EF61050CEF20000016841F00601BE
:10205000016010BD002804BF012070472DE9F04148
:1020600043F60808C4F202080446D8F8F8030D46FF
:1020700000F00700814207D988F8F853D8F8F80330
:1020800000F00700A84277D12068810717D54107E3
:1020900005D5D8F8001041F4E051C8F80010010748
:1020A00005D5D8F8001041F46041C8F80010D8F800
:1020B0000010A26821F0F0011143C8F80010C00719
:1020C00040D1D8F8F80300F00700854207D288F81D
:1020D000F853D8F8F80300F00700A8424CD1206864
:1020E000410707D5D8F80010E26821F4E051114308
:1020F000C8F80010000708D5D8F80000216920F4BE
:10210000604040EAC100C8F8000000F08FF8D8F83D
:10211000001047F2C022C1F30311C0F60002515C67
:1021200040F22C0220FA01F140F20400C2F2000059
:102130000068C2F200021160FEF7B0FE0020BDE8A8
:10214000F08100BF6068811E022907D258F8081C80
:1021500089015CBF0120BDE8F08111E0012807D1B1
:1021600058F8081C89035CBF0120BDE8F08107E036
:1021700058F8081C890703D40120BDE8F08100BF8E
:10218000D8F8001021F003010843C8F80000FEF75A
:1021900055FE064641F28837D8F80000616800F025
:1021A0000C00B0EB810F8CD0FEF748FE801BB842CC
:1021B000F2D90320BDE8F0810F22026043F6080245
:1021C000C4F20202136803F003034360136803F0D0
:1021D000F0038360136803F4E053C360D2F800C0D7
:1021E0004FF4E05303EADC030361D2F8F80300F094
:1021F000070008607047000040F22C00C2F20000A7
:102200000068704740F22C0043F60801C2F200005B
:10221000C4F202010068096847F2D022C1F34231DA
:10222000C0F60002515CC8407047000010B543F68C
:102230000404C4F202046168C1F3810142F2004067
:10224000C0F2F400DFE801F002040A0210BD00BF92
:1022500041F60030C0F2B70010BD00BF2068216811
:102260002368490241F60031C0F2B70100F03F0295
:10227000C3F388105CBF42F20041C0F2F401A1FB3D
:1022800000010023FEF706F821680222C1F3014194
:1022900002EB4101B0FBF1F010BD0000002804BFCB
:1022A000012070472DE9F04182B00446007843F6E2
:1022B0000006C007C4F202060CD0B06800F00C00A3
:1022C000042840F081803068800303D560680028CE
:1022D00000F06881207880071BD5B06810F00C0FE3
:1022E00009D0B06800F00C00082840F087807068C2
:1022F000400200F183803068800703D5E068012840
:1023000040F050813068216920F0F80040EAC100B7
:1023100030602078000713D4207840072AD4A569BC
:10232000002D00F03A81B06800F00C00082840F061
:10233000A580012D40F00E81012002B0BDE8F081A2
:102340006069002800F082800020C4F2472001214B
:10235000C0F8801EFEF772FD054600BF706F800753
:10236000DAD4FEF76BFD401B0228F7D9032002B038
:10237000BDE8F081306C5FEAC0080AD4002001900B
:10238000306C40F080503064306C00F08050019030
:10239000019847F20007C4F200073868C00547D427
:1023A000386840F480703860FEF748FD054600BF8D
:1023B0003868C0053CD4FEF741FD401B0228F7D920
:1023C000032002B0BDE8F081B06800F00C000828DE
:1023D00003D1706840023FF576AF61683068B1F5AF
:1023E000803F07D0B1F5A02F40F09A8040F48020C4
:1023F0003060306840F4803030609AE0E068002857
:1024000040F20000C4F247205CD001210160FEF7D9
:1024100015FD0546306880073FF574AFFEF70EFDE9
:10242000401B0228F6D9032002B0BDE8F08100BFAE
:10243000A168306F012905D0052955D140F004006D
:102440003067306F40F00100306756E00020C4F282
:1024500047200021C0F8801EFEF7F0FC054600BFB3
:10246000706F80077FF558AFFEF7E8FC401B02282D
:10247000F6D9032002B0BDE8F08100BF0027C4F206
:10248000472700203866FEF7D9FC022D05460DD1FE
:102490003068800140F18A80FEF7D0FC401B0228A2
:1024A0004FF00300F4D902B0BDE8F081306880013C
:1024B00073D5FEF7C3FC401B02284FF00300F5D98B
:1024C000F1E700BF00210160FEF7B8FC054600BF40
:1024D000306880077FF51DAFFEF7B0FC401B022877
:1024E0004FF00300F4D9DEE720F001003067306FD1
:1024F000002920F0040030677AD0FEF79FFC0546E3
:1025000041F28837306F800700F18480FEF796FC37
:10251000401BB842F6D9032002B0BDE8F08100BFED
:1025200020F4803030603068002920F48020306052
:102530007AD0FEF783FC0546306880033FF5CAAECB
:10254000FEF77CFC401B6428F6D9032002B0BDE8EE
:10255000F08100BF7068E16900F480028A4221D1F5
:10256000216A00F03F028A421CD147F6C071626ABC
:102570000140B1EB821F15D1A16A4FF6FF73C90369
:10258000994300F44032A1F580318A420AD1E16AD0
:1025900000F07060B0EB016F04D1002002B0BDE824
:1025A000F08100BF012002B0BDE8F08104F11C05FC
:1025B0002FCD084340EA8210D9034FF6FF729143B2
:1025C000A1F5803140EA056008437060012038665B
:1025D000FEF734FC044600BF30688001DDD4FEF70E
:1025E0002DFC001B02284FF00300F5D95BE700BF6C
:1025F000FEF724FC054641F2883700BF306F8007A4
:1026000008D5FEF71BFC401BB8424FF00300F5D97C
:1026100049E700BFB8F1000F3FF581AE306C20F004
:10262000805030647BE600BFFEF708FC054600BF23
:10263000306880037FF54EAEFEF700FC401B642837
:102640004FF00300F4D92EE770B528B1416A29B1E3
:1026500000210161142106E0012070BD4168B1F53F
:10266000827F02D01C21002242500026866290F810
:10267000511029B980F85060054600F03DF8284611
:10268000022180F8511090E82E0002F482720C684A
:1026900003F4044324F040040C601A4405F400637E
:1026A00005691A4405F0020345691A4405F001035F
:1026B0008569C4691A4405F400731A4404F03803A8
:1026C000046A1A4404F08003846A1A4304F4005331
:1026D0001A430A60436A042202EA154203F0100317
:1026E0001A444A60CA6922F40062CA61012146653F
:1026F00080F85110304670BD2DE9F04F87B0044688
:1027000043F200070068C4F201070026B8420696AB
:10271000CDE904660396029602D007B0BDE8F08FBB
:1027200043F630000196C4F20200416902AD41F463
:1027300080514161416946F2404801F48051019164
:102740000199019601684FF0020941F00201016010
:1027500001684FF0030A01F002010191019901960D
:1027600001684FF0050B41F0010101600068294646
:1027700000F00100019001981820029007F55440E4
:10278000C4F20208CDE90396CDF814A0CDF818B034
:10279000FEF77EFA8020CDE9020904A880E8400C0B
:1027A00007F550402946FEF773FA41F65415C2F278
:1027B00000054FF440304FF0C0674FF48069C5E921
:1027C00008062846C5E90087C5E90266C5E90496FA
:1027D000C5E90666FEF796F9002818BFFEF7ACF8C3
:1027E000E564AC6341F6B41508F11800C2F20005C7
:1027F0004021C5E9000705F10800002280E8060233
:102800004FF40030C5E908022846C5E90522EA610F
:10281000FEF778F9002818BFFEF78EF8A564AC63C0
:1028200007B0BDE8F08F00002DE9F04383B01E46ED
:1028300015460F460446FEF701FB94F851108146F9
:10284000012909D1002F4FF0010018BF002D0FD131
:1028500003B0BDE8F08300BF6068B0F5827F0DD1A2
:1028600004294FF00200F3D1A1680029EAD0EFE774
:10287000002EEDD094F85000012803D1022003B0BF
:10288000BDE8F083012084F8500094F85100002145
:1028900004281CBF052084F851006165A563E68704
:1028A000A6872763E6862068A6862164616401689E
:1028B000490603D4016841F0400101606168731E5C
:1028C000E268B1FA81F1B3FA83F3DDF828804909AF
:1028D0005B09B2F5006F41EA030165D131B137F808
:1028E000021BC1602763E08E0138E086012518F1E4
:1028F000010032D102E000BFFEF7A0FAE08E18B965
:10290000E08F002800F0B8802068816889070CD526
:10291000E18E51B1012D08D1216B002531F8022B38
:10292000C2602163E18E0139E1868168C907E3D085
:10293000E18F0029E0D0C068A16B012521F8020BCE
:10294000A163E08F0138E087D6E700BFFEF776FA93
:10295000A0EB0900404580F0A580E08E18B9E08F1B
:10296000002800F089802068816889070CD5E18EF5
:1029700051B1012D08D1216B002531F8022BC26025
:102980002163E18E0139E1868168C907DED0E18FDC
:102990000029DBD0C068A16B012521F8020BA163DF
:1029A000E08F0138E087D1E739B139780173206BC6
:1029B00001302063E08E0138E086012518F1010026
:1029C00032D101E0FEF73AFAE08E10B9E08F00282C
:1029D00052D02068816889070ED5E18E61B1012D42
:1029E0000AD1216B002509780173216B2068013120
:1029F0002163E18E0139E1868168C907E2D0E18F68
:102A00000029DFD0C068A16B01250870A06B0130E0
:102A1000A063E08F0138E087D4E700BFFEF70EFA2D
:102A2000A0EB090040453DD2E08E08B9E08F18B315
:102A30002068816889070ED5E18E61B1012D0AD128
:102A4000216B002509780173216B20680131216316
:102A5000E18E0139E1868168C907DFD0E18F002965
:102A6000DCD0C068A16B01250870A06B0130A063A9
:102A7000E08F0138E087D1E720460221012243465A
:102A8000CDF8009000F0FEFCB0B1606D40F0200089
:102A9000606520206065002084F85000012003B0AC
:102AA000BDE8F083012084F85100002084F8500034
:102AB000032003B0BDE8F08340F22C00C2F2000016
:102AC000006849F68171C1F25E61A0FB0101480D09
:102AD0004FF47A71484302906068B0F5827F0BD161
:102AE0002046802100224346CDF8009000F0CAFC29
:102AF0000028CAD121E000BF0298F0B10298013845
:102B0000029020688168090617D50299A9B1029937
:102B100001390291816809060FD5029969B10299BC
:102B2000013902918168090607D5029929B10299F4
:102B30000139029180680006DED4A06838B900200F
:102B400001902068C168019180680190019801207E
:102B500084F85100002084F85000606D002818BFF0
:102B6000012003B0BDE8F08370470000704700000B
:102B7000002804BF0120704710B5044690F83D00BE
:102B800028B9002084F83C00204600F01FF80220FD
:102B900084F83D002068211D00F0A8FD012084F884
:102BA000460084F83E0084F83F0084F8400084F832
:102BB000410084F8420084F8430084F8440084F81B
:102BC000450084F83D00002010BD0000006844F27C
:102BD0000041C4F20101884218BF704780B582B03D
:102BE0000020019043F64400C4F202000168002274
:102BF00041F40031016000680F2100F400300190C1
:102C000001981920FEF7D2F9192002B0BDE88040E2
:102C1000FEF7BAB990F83D1001291CBF012070479A
:102C2000022180F83D10006841F2FF72C168C4F2D1
:102C30000002904241F00101C1600DDC40F2FF71E1
:102C4000C4F20001884215DCB0F1804F2AD040F276
:102C50000041C4F2000123E040F2FF31C4F201015F
:102C6000884213DC41F60001C4F20001884219D009
:102C7000002113E040F60001C4F20001884211D0A7
:102C800040F60041C4F200010AE000BF44F2000136
:102C9000C4F20101884205D040F20041C4F20101B2
:102CA000884206D1816801F00701062904BF00208F
:102CB0007047016841F00101016000207047000089
:102CC0007047000070B504460068C5680669B10722
:102CD00016D515F0020113D06FF002010161012138
:102CE00021778069800703D02046FFF7E9FF05E0E0
:102CF000204600F08FF8204600F0CEF90020207723
:102D0000700719D515F0040016D020686FF0040183
:102D1000016102212177806910F4407F04D02046B0
:102D2000FFF7CEFF06E000BF204600F073F8204614
:102D300000F0B2F900202077300717D515F0080011
:102D400014D020686FF00801016104212177C06967
:102D5000800703D02046FFF7B3FF05E0204600F0D0
:102D600059F8204600F098F900202077F00619D590
:102D700015F0100016D020686FF0100101610821D5
:102D80002177C06910F4407F04D02046FFF798FFF8
:102D900006E000BF204600F03DF8204600F07CF938
:102DA00000202077F00718BF15F0010002D130068F
:102DB00009D412E020686FF001010161204600F0A3
:102DC0006DF9300609D515F0800006D020686FF047
:102DD000800101612046FFF7C7FE700609D515F096
:102DE000400006D020686FF040010161204600F0ED
:102DF0005FF9B00658BF70BD15F0200008D02168FB
:102E00006FF0200220460A61BDE87040FFF7AEBEB9
:102E100070BD00007047000090F83C30012B04BFEB
:102E2000022070474FEAB202032A00F2FF802DE928
:102E3000F043DFE802F003B13F7F00BF036840F2D8
:102E400000461C6A1A6A24F0020422F001021A6287
:102E50001A46D3F804C052F818EF8F6843F480651F
:102E6000C4F20106B54244EA070405D1CF6824F054
:102E70000C0427F004073C430F68B54206D1D1E9A2
:102E800005582CF440762E4346EA080C2EF07306C3
:102E90003743C3F804C09F614F6809695F631C62D0
:102EA0009F6947F008079F619F6927F004079F61AA
:102EB000B1E000BF036840F200481C6A1A6A24F4BB
:102EC000007422F480721A621A46D3F804C052F8D1
:102ED0001CEF8F6843F48065C4F20108454544EA5D
:102EE000072408D1CF6840F2FF463F0224F4406433
:102EF00027EA06063443D1F80090454506D1D1E9CA
:102F000005562CF440572E4347EA061C2EF0730753
:102F100047EA0907C3F804C0DF614F680969DF6346
:102F20001C62DF6947F00807DF61DF6927F00407EB
:102F3000DF6170E0036840F20045D3F820C01A6AF0
:102F400043F4806722F480521A621A465C6852F891
:102F50001C8FD1F800E08E68C4F20105AF4204D1A5
:102F60004D6924F4804444EA85142CF4005747EA60
:102F7000063728F4E64646EA0E265C60DE614E68B7
:102F800009691E641F62DF6947F40067DF61DF695A
:102F900027F48067DF613DE0036840F200481C6A67
:102FA0001A6A24F0200422F010021A621A46D3F89A
:102FB00004C052F818EF8F6843F48065C4F201082A
:102FC000454544EA071407D1CF686FF0400624F066
:102FD000C00406EA07163443D1F80090454506D1EF
:102FE000D1E905562CF440672E4347EA860C2EF4AF
:102FF000E64747EA0927C3F804C09F614F6809699B
:103000009F631C629F6947F400679F619F6927F473
:1030100080679F6109021368194311600021BDE8B0
:10302000F043002280F83C2008467047012100222E
:1030300080F83C2008467047002804BF01207047F4
:1030400010B5044690F83D0028B9002084F83C00F3
:10305000204600F01FF8022084F83D002068211D62
:1030600000F044FB012084F8460084F83E0084F818
:103070003F0084F8400084F8410084F8420084F85E
:10308000430084F8440084F8450084F83D000020A3
:1030900010BD00007047000070470000006800216C
:1030A000C4F20101884218BF7047FDF7CDBE000091
:1030B00070470000FEE7000080B582B0002001905C
:1030C00043F63000C4F202000168002241F480019E
:1030D00001600068052100F48000019001983A2009
:1030E000FDF764FF3A20FDF74FFF3B20052100224A
:1030F000FDF75CFF3B2002B0BDE88040FDF744BF18
:1031000070B58EB0134808AC079012A000F1040E01
:103110009EE80E50806984E80E500D9007A80021AB
:1031200003F09CF940F26816C2F2000610493060C4
:103130000FA0051D00913ECD80690DF1040C8CE8B7
:103140003E0006906846002103F088F970600EB0DA
:1031500070BD00BFE0720008D53500080000000017
:1031600000000000800000000000000000000000DF
:10317000EC720008BD6900080300000000000000B8
:10318000000C000000000000000000002DE9F041EC
:1031900086B0002043F630010590CDE90300CDE96B
:1031A00001000090C4F202010A68002542F0020208
:1031B0000A600A68C4F2020502F002020092009A54
:1031C00000900A68102642F001020A600A6801278E
:1031D00002F001020092009A00900A6842F0800218
:1031E0000A600A6802F080020092009A00900A6861
:1031F00042F020020A600A6802F020020092009A5F
:1032000000900868012240F004000860086810215E
:1032100000F00400009000982846FDF709FE05F52F
:103220008064204601210122FDF702FECDE90167FD
:1032300001AE4FF00208284631460397CDF81080C2
:10324000FDF726FD302001904FF48810CDE90207EC
:1032500005F500603146FDF71BFD20463146CDE9FE
:103260000177CDE90378FDF713FD06B0BDE8F081E5
:10327000B0B541F6F86043F20001C2F20000C4F2BA
:1032800001014FF48272002380E80E0000F10C016E
:103290004FF0020C4FF0010E4FF40074382581E816
:1032A00008500A21C0E90645C0E90833C0E90A31DF
:1032B000FFF7CAF9002808BFB0BDBDE8B040FDF770
:1032C0003BBB000070B58EB044F2004541F69870EB
:1032D000C4F201050021C2F2000041F28732CDE9BB
:1032E0000611CDE90411C0E90051C0E902120161E3
:1032F0008161FFF73DFC002818BFFDF71DFB41F67B
:103300009870C2F20000FFF797FE002818BFFDF783
:1033100013FB41F698746020C2F20004019000266D
:1033200001A920460022CDE902660596FFF774FD4B
:10333000002818BFFDF700FB20680D96A842CDE9D4
:103340000B660A96099601D00EB070BD0020089059
:1033500043F63000C4F20200016841F02001016030
:103360000068012100F02000089008984020099092
:1033700002200A90CDE90B1003200D9005F5504076
:1033800009A9FDF785FC0EB070BD000080B541F2C3
:10339000786040F21001C2F20000C2F20001002287
:1033A00000F0C2FE002818BFFDF7C6FA41F27860AF
:1033B00040F23001C2F20000C2F2000101F026F931
:1033C000002818BFFDF7B8FA41F2786040F2CC014E
:1033D000C2F20000C2F2000100F0D2FB002818BFC8
:1033E000FDF7AAFA41F27860C2F2000001F038F964
:1033F000002808BF80BDBDE88040FDF79DBA0000F1
:10340000FEE70000FEE7000041F61420C2F20000D3
:10341000FDF7A8BF00000000000000000000000051
:10342000EFF30980BFF36F8F154B1A681EF0100F72
:1034300008BF20ED108A20E9F04F10602DE9090047
:103440004FF0500080F31188BFF34F8FBFF36F8FA1
:1034500003F0C8FC4FF0000080F31188BDE80900BC
:1034600019680868B0E8F04F1EF0100F08BFB0EC04
:10347000108A80F30988BFF36F8F704700BF00BFC9
:10348000700100202DE9F04381B0089C9846154654
:103490000E468146FDF7D2FC201A00EB0804FDF72A
:1034A000CDFC40F22C01C2F200010968C1F3CB311E
:1034B00061430091D9F800108A683240921BB2FA39
:1034C00082F25209954203D1002001B0BDE8F08399
:1034D000074618F101000ED130E000BF0098013816
:1034E0000090D9F8000080683040801BB0FA80F06E
:1034F00040098542E8D0FDF7A1FCC01BA04227D2BD
:1035000000980028EAD10024EBE700BF886830402B
:10351000801BB0FA80F040098542D5D088683040E1
:10352000801BB0FA80F040098542CDD088683040D9
:10353000801BB0FA80F040098542C5D088683040D1
:10354000801BB0FA80F040098542DFD1BCE700BFA4
:10355000D9E900014268B1F5827F22F0E0024260C1
:103560000BD1D9F80810B1F5004F02D0B1F5806F3A
:1035700003D1016821F040010160D9F82810B1F5AC
:10358000005F07D1016821F400510160016841F436
:1035900000510160012089F85100002089F8500095
:1035A000032001B0BDE8F08300000000000000002F
:1035B000074B19680868B0E8F04F80F30988BFF33B
:1035C0006F8F4FF0000080F31188704700BF00BF7D
:1035D00070010020FFF7DAFE012002F031FFFBE767
:1035E00080B54FF0500080F31188BFF36F8FBFF3A9
:1035F0004F8F03F05FFD30B14EF60450CEF2000065
:103600004FF080510160002080F3118880BD0000E0
:1036100070B592B006AC20463021FCF7B3FE002511
:1036200043F640000595CDE90355CDE901550095D8
:10363000C4F202000168022641F080510160006876
:1036400000F080500090009847F200000095C4F20E
:103650000000016841F480410160006800F480408E
:1036600000900098012006904FF4803007904FF4AE
:1036700080000D9006200E904820CDE90F06032013
:10368000119020460C96FEF709FE18B172B600BFE5
:10369000FEE700BF0F20CDE901064FF48050CDE9D1
:1036A000040501A802210395FEF7D4FC10B172B6FF
:1036B000FEE700BF12B070BD4EF68850CEF200009B
:1036C000016841F4700101607047000080B541F667
:1036D0005070C2F20000FFF7F5FA41F69870C2F29E
:1036E0000000BDE88040FFF7EDBA0000B0B540F63D
:1036F000FF3E0568C4F2000E40F2004C7045C4F273
:10370000010C25DCB0F1804F2FD040F20043C4F211
:103710000003984229D040F60003C4F20003984207
:1037200023D041F6FF73C4F20003984228DC7045B1
:103730003ADCB0F1804F5BD040F20043C4F20003AA
:10374000984255D040F60003C4F200034EE000BF9B
:1037500040F60043C4F20003984206D0604504D00E
:103760000023C4F201039842DBD14B6825F07002BC
:1037700043EA020541F6FF73C4F200039842D6DD26
:1037800043F6FF73C4F2010398421FDC42F20003C8
:10379000C4F2000398422BD00023C4F201039842E4
:1037A00026D0604524D028E040F60043C4F2000350
:1037B00098421DD041F60003C4F20003984217D08E
:1037C00041F60043C4F2000310E000BF44F20003DE
:1037D000C4F2010398420BD044F60003C4F2010383
:1037E000984205D044F20043C4F20103984204D148
:1037F000CB6825F4407243EA02050A688C684B697D
:10380000C46240F480648262644504BF0969016354
:10381000026825F0800142F004021943026001228F
:1038200042610160B0BD0000D0F8D42200EB820CF0
:10383000DCF8C032002B04BF03207047B0B501F0A4
:103840000F0404EB840200EB820E5EF8142F5AB1D1
:10385000D0F8C85204EBC40405EB8404E469B2FB5D
:10386000F4F505FB14229AB10020C3F81402DCF829
:10387000C422D2F810C0BCF1000F08BFB0BDD3F80D
:1038800008020A4603F50471E0470020B0BD00BFFE
:1038900000220023CEF8002000F09AFE0020B0BDE8
:1038A000B0B5D0F8D42200EB8202D2F8C0529DB15C
:1038B000044600F023FDD4F8D412C5F80C0204EB42
:1038C0008101D1F8C412D5F80402CA6805F5037164
:1038D00090470020B0BD00BF0320B0BD70B581216E
:1038E000044600F049FC00252046012184F83750A9
:1038F00000F042FC2046822184F8775100F03CFC25
:10390000D4F8D40204F5307656F8201084F84B50E1
:10391000656489B104EB8000D0F8C4024068804738
:10392000D4F8D40256F8200001F03EF9D4F8D402BD
:1039300046F82050C4F8BC52002070BD10B5D0F835
:10394000D41200EB8100D0F8C0428CB1D0F8C41280
:1039500059B194F80002FF2807D08B6894F801222F
:1039600021469847FF2084F80002002010BD00BFC8
:10397000032010BD014640F2AC000A22C2F2000052
:103980000A807047F0B581B040F26807C2F20007C4
:1039900004463846822100F005FB064638460121E0
:1039A00000F000FB05463846812100F0FBFA002EAE
:1039B0001CBF1021B171002D1CBF4021A98000281F
:1039C0001CBF40218180432140F26800C2F2000008
:1039D000218001B0F0BD0000F0B581B040F2680771
:1039E000C2F2000704463846822100F0DBFA0646A0
:1039F0003846012100F0D6FA05463846812100F00C
:103A0000D1FA002E1CBF1021B171002D1CBF4FF444
:103A10000071A98000281CBF4FF4007181804321F0
:103A200040F26800C2F20000218001B0F0BD000049
:103A3000F0B581B040F26807C2F20007044638468C
:103A4000822100F0AFFA06463846012100F0AAFABA
:103A500005463846812100F0A5FA002E1CBF102132
:103A6000B171002D1CBF4021A98000281CBF40213E
:103A70008180432140F26800C2F20000218001B041
:103A8000F0BD00002DE9F04104464FF4077001F04D
:103A90008DF8002850D04FF407710546FCF772FCF2
:103AA000D4F8D402402704EB8000C0F8C052207C38
:103AB000C4F8BC52002808BF4FF40077204681218B
:103AC00002223B46022600F097FC4FF001082046F8
:103AD000012102223B4684F8378000F08DFC102043
:103AE0006064204682210322082384F8778100F055
:103AF00083FCD4F8D4020027C5F8047204EB8000DC
:103B0000D0F8C40284F84B8000688047C5F814726E
:103B1000C5F81872D5F8042252B1207C0121002882
:103B2000204614BF40234FF4007300F079FC0026B8
:103B30003046BDE8F08100BFD4F8D402002104EB88
:103B40008000C0F8C0120220BDE8F081D0F8D41285
:103B500000EB8101D1F8C012002904BF0320704797
:103B600080B590F810C0D1F8042240230121BCF1A7
:103B7000000F08BF4FF4007300F052FC002080BD1E
:103B800000290FBF0320D0F8D42200EB8200C0F838
:103B9000C41218BF00207047D0F8D42200EB820076
:103BA000D0F8C00200280EBF0320C0F80412002085
:103BB00070470000D0F8D43200EB8300D0F8C00288
:103BC00000280FBF0320C0F80812C0F81022002000
:103BD00070470000F0B581B0D0F8D42200EB82032A
:103BE000D3F8C0420022002C8DF80320ADF800204D
:103BF00060D00D7815F0600218D0202A58D1CA88FC
:103C0000002A29D06DB2B5F1FF3F2FDD4978402A57
:103C100084F80012214628BF402284F8012200F0D7
:103C200077F80024204601B0F0BD00BF4A780B2A87
:103C30003ED80024DFE802F008063C3C3C3C3C3C1B
:103C40003C3C2A38EEE700BF90F89C22032A2FD193
:103C50006946022221E000BFD3F8C4020022836833
:103C6000487800249847204601B0F0BDD3F8C4320C
:103C700006469D684B780F4618462146A847FA88A5
:103C80003046072A28BF0722214606E090F89C22EA
:103C9000032A0DD10DF10301012200F055F8002493
:103CA000204601B0F0BD00BF90F89C22032AB9D095
:103CB00000F022F80324204601B0F0BD80B5D0F812
:103CC000B82252689047002818BF032080BD00002A
:103CD000002070470020704780B513460A46002137
:103CE00000F09EFB002080BD80B513460A460021EF
:103CF00000F06EFC002080BD10B58021044600F06D
:103D000035FC20460021BDE8104000F02FBC00002B
:103D100080B513460A460321C0F894120021C0F86A
:103D20006421C0E9553300F07BFB002080BD00001A
:103D300080B50521C0F8941200210022002300F074
:103D40006FFB002080BD000080B513460A460221AB
:103D5000C0F8941200214262C0E9053300F038FC3B
:103D6000002080BD80B50421C0F8941200210022FB
:103D7000002300F02DFC002080BD000010B540F2B3
:103D80005824C2F200040A4602A0214600F04CF971
:103D9000204610BD43444320436F6E6669670000B0
:103DA00040F2B8001222C2F200000A807047000000
:103DB00010B540F25824C2F200040A4602A021467F
:103DC00000F032F9204610BD43444320496E74652B
:103DD000726661636500000040F2E0000422C2F2F6
:103DE00000000A807047000010B540F25824C2F26B
:103DF00000040A4602A0214600F016F9204610BD34
:103E0000524D000010B540F25824C2F200040A4698
:103E100002A0214600F008F9204610BD53544D334E
:103E200032205669727475616C20436F6D506F72E9
:103E30007400000047F61020C1F6FF700268836826
:103E40004FF01A0C9B18A1F800C000F0A680B0B586
:103E50004FF0370C1A0F0CEB13714068B3F1204F81
:103E600038BF02F1300140F2E402C2F20002917068
:103E700019014FF0000E0CEB117582F803E0C3F34B
:103E80000364B1F1204F38BF04F1300519021571F8
:103E90000CEB117582F805E0C3F30354B1F1204F28
:103EA00038BF04F13005190395710CEB117582F8D8
:103EB00007E0C3F30344B1F1204F38BF04F13005EC
:103EC000190415720CEB117582F809E0C3F3033481
:103ED000B1F1204F38BF04F13005190595720CEB94
:103EE000117582F80BE0C3F30324B1F1204F38BF02
:103EF00004F1300519061573C3F303140CEB1175A7
:103F0000B1F1204F4FEA037103F00F0382F80DE087
:103F100038BF04F1300503F13704957382F80FE0E0
:103F2000B1F1204F38BF03F13004010F0CEB1073D7
:103F3000147482F811E0B0F1204F38BF01F1300362
:103F400001010CEB1174937482F813E0C0F3036366
:103F5000B1F1204F38BF03F1300401021475C0F3F2
:103F600003530CEB1174B1F1204F4FEA003182F88A
:103F700015E038BF03F130040CEB1173947582F82F
:103F800017E0C0F30340B1F1204F38BF00F1300318
:103F9000137682F819E0BDE8B04040F2E400C2F2C6
:103FA00000007047B0F802C003789C459CBF002019
:103FB000704780B508E000BF82788A4208BF80BDA4
:103FC00073449AB262452DD290F800E07044427872
:103FD000052A02D182788A4225D073449AB262457A
:103FE00020D290F800E070444278052A02D182780D
:103FF0008A4218D073449AB2624513D290F800E016
:1040000070444278052A02D182788A420BD07344E8
:104010009AB2624506D290F800E070444278052AD0
:10402000CAD0CDE7002080BD002808BF704710B57A
:1040300003783BB300F1020EF44600BF1CF8013CCC
:104040005BB19CF8003043B19CF801302BB19CF877
:1040500002300CF1040C002BF0D14FF0000C00BF2B
:104060001EF8013C93B19EF800309BB19EF80130E0
:10407000A3B19EF802300CF1040C002B0EF1040EDB
:10408000EED10DE04FF0000C0AE000BF4CF0010C47
:1040900006E000BF4CF0020C02E000BF4CF0030C45
:1040A0005FFA8CFC022303EB4C03138003220B709A
:1040B0004A700378A3B3023002224FF0000C00BF15
:1040C0005FFA82FE51FA82F401F80E3084F801C0E2
:1040D00010F8013C23B3941C5FFA84FE51FA84F477
:1040E00001F80E3084F801C00378CBB1141D5FFADB
:1040F00084FE51FA84F401F80E3084F801C043784C
:1041000073B1941D5FFA84FE51FA84F401F80E3005
:1041100084F801C083780832002B00F10400CFD16D
:10412000BDE8104070470000002804BF032070471E
:104130000023C0F8B832C0F8C4320029C0F8D03229
:1041400018BFC0F8B412012180F89C12027000F070
:10415000D9B8000080B5D0F8C802FDF717F840F2D2
:104160000032C100C0F2013222FA01F1032888BFF7
:104170000321C8B280BD000080B5D0F8C802FCF7AA
:10418000DDFF40F20032C100C0F2013222FA01F13B
:10419000032888BF0321C8B280BD0000B0B589B133
:1041A00090F89C22032A54D1D0F8B8225269002AF0
:1041B0004FD00023C0F8D4329047002808BF002019
:1041C000B0BD00BFD0F8941202293BD18169038CA5
:1041D00099420FD9CA1A416A826119444162044660
:1041E000FFF782FD204600210022002300F018F98D
:1041F00027E000BF10D142698A420DD3D0F898124F
:104200008A4209D20021002204460025FFF76CFDF6
:10421000C4F89852E6E700BF90F89C12032909D130
:10422000D0F8B812C96829B10022C0F8D4220446D7
:10423000884720468021044600F098F92046FFF781
:1042400077FD204690F8A01200291CBF002180F8BD
:10425000A0120020B0BD000010B579B190F89C22EA
:10426000032A22D1D0F8B8229269F2B10023C0F813
:10427000D4329047002808BF002010BDD0F8941217
:10428000032912D1D0F85811B0F8602191420FD90A
:104290008B1AD0F86411C0F858311144C0F8641179
:1042A000934288BF1A46FFF717FD002010BD00BFDC
:1042B00090F89C12032909D1D0F8B812096929B1E4
:1042C0000022C0F8D422044688472046FFF74AFD62
:1042D000002010BD00207047012180F89C12D0F80A
:1042E000B812002904BF0020704780B54A680179E0
:1042F0009047002818BF032080BD0000D0F8C802F6
:10430000FCF774BF017809B10020704710B541F681
:104310001421C2F20001C1F8E004C0F8C8124FF045
:10432000A0400860042008714FF40070C88002208B
:10433000C1F809000020C8810846FDF79BFC002851
:1043400018BFFCF7F9FA41F61424C2F20004204623
:104350008021FCF769FE204600214022FCF768FE20
:10436000204601218022FCF763FEBDE810400020BA
:1043700070470000D0F8C80201F07F034AB203EB97
:10438000C30301EBC10100EB830300EB810000F2EA
:104390005620002A48BF03F116000078704700003D
:1043A000D0F8D42200EB8202D2F8B822002A04BF4F
:1043B0000320704790F89C32032B05D1126A1AB182
:1043C00080B59047002080BD00207047D0F8D422EF
:1043D00000EB8202D2F8B822002A04BF0320704703
:1043E00090F89C32032B05D1526A1AB180B59047E0
:1043F000002080BD0020704780B59446D0F8C802E8
:104400001A466346FCF7FCFE40F20032C100C0F2DF
:10441000013222FA01F1032888BF0321C8B280BD0E
:1044200080B5D0F8C802FCF725FF40F20032C10089
:10443000C0F2013222FA01F1032888BF0321C8B279
:1044400080BD0000F0B581B00126002580F89C6297
:10445000C0F8945204464560D0F8B802C4F8A4529B
:1044600084F8A05240B1426832B120460021904702
:104470000546002818BF03252046002100224023BE
:104480004027FFF7B9FF204680210022402384F80F
:104490006361A4F86071FFF7AFFF84F823602846DA
:1044A000278401B0F0BD000090F89C12042904BFDD
:1044B00090F89D1280F89C120020704790F89C1292
:1044C000032908D1D0F8B81229B1C96919B180B54A
:1044D0008847BDE880400020704700000246002069
:1044E0001174704780B5D0F8C802FDF75DFD40F249
:1044F0000032C100C0F2013222FA01F1032888BF64
:104500000321C8B280BD0000B0B500F2AA24054660
:10451000204600F06FF80121C5F8941295F8AA1210
:10452000B5F8B03201F01F02022AC5F898320FD058
:10453000012A07D092B928462146BDE8B04000F0D4
:1045400091B800BF28462146BDE8B04000F0F4BA5B
:1045500028462146BDE8B04000F040BA01F0800195
:104560002846BDE8B04000F001B8000080B5D0F8A2
:10457000C802FCF7A1FE40F20032C100C0F20132D5
:1045800022FA01F1032888BF0321C8B280BD0000D0
:1045900080B5D0F8C802FDF723FD40F20032C1001B
:1045A000C0F2013222FA01F1032888BF0321C8B208
:1045B00080BD0000014690F89C02042204281CBF24
:1045C00091F89C0281F89D02002081F89C2270479E
:1045D00080B5D0F8C802FCF7A7FE40F20032C10057
:1045E000C0F2013222FA01F1032888BF0321C8B2C8
:1045F00080BD00000A7802704A7842704A88428082
:104600008A888280C988C1807047000010B582B056
:1046100004460020ADF80600B1B1D4F8D42204F568
:104620002E70C4F8B81250F82200C16A21B10DF101
:1046300006008847C4F8D002D4F8D8020130C4F884
:10464000D802002002B010BD032002B010BD00004F
:10465000D0F8B822002A04BF002070471268104723
:10466000FFF796BF0A78C2F34112531E022B07D2FE
:10467000D0F8D42200EB8202D2F8B8229268104718
:1046800070B582B0002A40F0CB804A78092A00F247
:10469000C780DFE802F0052FC557C56183C51B4100
:1046A00090F89C22013A022A00F2BA80C9880229B5
:1046B00040F0B680D0F8A4120322002908BF0122DE
:1046C000014641F80C2F02226AE100BFC988012986
:1046D00040F0A68090F89C124A1E022A80F09A8030
:1046E0000024014641F8084F0122FFF72DFB204628
:1046F00002B070BD90F89C22013A022A00F290802C
:1047000049880024012940F09480C0F8A442FFF7B2
:1047100029FB204602B070BD498840F25425C2F200
:10472000000511F0FE0F297052D080210446FFF7DA
:104730001DFF20460021FFF719FF0324204602B089
:1047400070BD00BF4A88022A60D0012A68D10121C9
:10475000C0F8A4122DE100BF8A88002A60D1CA885F
:10476000002A5DD14D887F2D5AD890F89C120329DC
:1047700056D0E9B280F89E520446FFF7B3FE2046B9
:104780002646FFF7EFFA002D14BF0220012086F81D
:104790009C020024204602B070BD00BF4A884FF042
:1047A000FF3303EB12230026062BADF8066000F260
:1047B000FD80DFE813F007004F004100FB00FB0025
:1047C0005F006D000D46D0F8B4120A68D7E000BF54
:1047D00090F89C22032A6BD0022A40F091800A06AE
:1047E00000F0E78001F00102C9B242600546FFF720
:1047F0002FFF002800F0A480044628468021FFF700
:10480000B5FE28460021FFF7B1FE73E0497980F834
:10481000A012CEE0032903D1011D0122C0E000BF98
:1048200080210446FFF7A2FE204600210024FFF766
:104830009DFE204602B070BDD2B2052A00F2B680BD
:10484000DFE802F004948C90889800BFD0F8B4227E
:10485000526892E00D46017C0446D0F8B802002967
:104860000CBF816AC16A0DF106008847014602202B
:104870001CE000BF027C002A40F098800446D0F87B
:10488000B8020D46416B0DF1060088477CE000BF81
:10489000027C002A40F08A800446D0F8B8020D4617
:1048A000016B0DF1060088470146072048706CE057
:1048B0000A0635D0426801F001018A4200F0798091
:1048C000D1B20446FFF7FAF92978204661602546FF
:1048D000FFF7BEFE002800F07F80044628468021B6
:1048E000FFF744FE28460021FFF740FE29792846BD
:1048F000FFF7E4F9022085F89C02204602B070BD63
:1049000080210446FFF732FE20460021FFF72EFEED
:1049100029782046FFF7D2F90324204602B070BD63
:10492000022180F89C120024002144600546FFF714
:10493000C5F92846FFF716FA204602B070BD00BF41
:104940002846FFF70FFA032085F89C020024204632
:1049500002B070BDD0F8B42252690EE0D0F8B42293
:10496000D2680AE0D0F8B422126906E0D0F8B42286
:10497000926802E0D0F8B4229269BAB10D460446BA
:10498000007C0DF1060190470146EA8882B1BDF82E
:104990000630ABB1934238BF1A46ADF80620204628
:1049A000FFF7D2F90024204602B070BD044608E0AB
:1049B0002046FFF7D7F90024204602B070BD00BFA3
:1049C00020468021FFF7D2FD20460021FFF7CEFDD3
:1049D0000024204602B070BD2846EAE770B50A7888
:1049E0000D46C2F341120979531E022B044607D229
:1049F0002046FFF76DF9002855D0002070BD00BF9C
:104A00009ABB687840B3012814D003282DD194F8BC
:104A10009C02032812D1688838B911F07F0004D0B5
:104A2000E88810B92046FFF7A1FD2046FFF79AF964
:104A3000002070BD94F89C02032821D0022814D1D4
:104A4000480612D02046FFF791FD20468021FFF74F
:104A50008DFD002070BD00BF94F89C0203282FD06C
:104A6000022808BF5FEA416056D020468021FFF748
:104A70007DFD20460021FFF779FD002070BD00BFBD
:104A800068880028B9D10E46480603D02046314632
:104A9000FFF760FB2046FFF765F920463146FFF738
:104AA00017F90028A9D1D4F8B80282680020002A9A
:104AB000C4F8D402A1D020462946BDE87040104772
:104AC00001F00F0000EB8000802904EB80002CBF78
:104AD00090F8230090F863010028C6D001F07F0011
:104AE00000EB800004EB800000F1140501EB810075
:104AF00004EB8000802938BF00F5AA75480605D070
:104B00002046FFF737FC08B1012000E0002005F146
:104B10000E01A8730AE000BF08064FF0140058BF4A
:104B20004FF4AA702118002001F80E0F204602222F
:104B3000FFF70AF9002070BDB0B50A7802F06002F4
:104B4000602A08D090F89C22013A022A03D88A8869
:104B500012F0FE0F0AD080210446FFF707FD204621
:104B600000210024FFF702FD2046B0BD0C46D1B263
:104B70000546FFF7AFF808B10320B0BDD5F8B8126D
:104B80008A68002AF8D000212846C5F8D4122146A8
:104B90009047E1880446002908BF002CE4D128464C
:104BA000FFF7E0F80020B0BD7047000040F2584029
:104BB000C2F200007047000010B50A784B78D0F8B8
:104BC0001CE802F00F04012B4FEA421C18D101230C
:104BD000A34043EA0E03C0F81C386044D0F8003903
:104BE0001B0428D48B6800F51060097904686FF302
:104BF000DF2343EA814144EA8252114316E000BFB9
:104C00004FF48032A24042EA0E02C0F81C286044F1
:104C1000D0F8002B12040ED48A6800F530600979B0
:104C20006FF3DF22036842EA8141194341F080516A
:104C300041F400410160002010BD00000146D0F8A1
:104C4000000940F2FF729043C1F80009D1F804084E
:104C500040F480720020C1F80428704782B002F44A
:104C60007F42B2F5807F40F09980826B4FF6BF7330
:104C700022F480328263C268CFF6BD731A40C260EC
:104C8000029BC268DBB222F44012012BC26003D146
:104C9000C26842F48012C26000220092009A01327F
:104CA0000092009AB2F1706F00F2F0800269002A5F
:104CB00021D4009A01320092009AB2F1706F00F292
:104CC000E5800269002A16D4009A01320092009A07
:104CD000B2F1706F00F2DA800269002A0BD4009AF8
:104CE00001320092009AB2F1706F00F2CF80026937
:104CF000B2F1FF3FD2DC0A220092009AAAB100BFB3
:104D0000009A013A0092009A7AB1009A013A009210
:104D1000009A52B1009A013A0092009A2AB1009A80
:104D2000013A0092009A002AEAD1026942F0010297
:104D30000261009A01320092009AB2F1706F00F2A3
:104D4000A5800269D20720D0009A01320092009A11
:104D5000B2F1706F00F29A800269D20715D0009A02
:104D600001320092009AB2F1706F00F28F800269F6
:104D7000D2070AD0009A01320092009AB2F1706F05
:104D800000F284800269D207D3D14FF0000C01F405
:104D90007F01B1F5803F40F099808FE0C26842F01A
:104DA0004002C26000220192019A01320192019AEE
:104DB000B2F1706F72D80269002A1ED4019A0132D2
:104DC0000192019AB2F1706F68D80269002A14D476
:104DD000019A01320192019AB2F1706F5ED80269B4
:104DE000002A0AD4019A01320192019AB2F1706F3D
:104DF00054D80269B2F1FF3FD6DC0A220192019A2F
:104E0000AAB100BF019A013A0192019A7AB1019ABE
:104E1000013A0192019A52B1019A013A0192019A22
:104E20002AB1019A013A0192019A002AEAD1026953
:104E300042F001020261019A01320192019AB2F13B
:104E4000706F2BD80269D2071DD0019A01320192EE
:104E5000019AB2F1706F21D80269D20713D0019A7A
:104E600001320192019AB2F1706F17D80269D2072C
:104E700009D0019A01320192019AB2F1706F0DD8F6
:104E80000269D207D7D14FF0000C09E04FF0030CB4
:104E900001F47F01B1F5803F18D10FE04FF0030C12
:104EA000826B13F47F4F14BF22F4803242F48032BD
:104EB000826301F47F01B1F5803F07D1816841F041
:104EC00006018160816841F020018160604602B086
:104ED0007047000010B54A7891F800E047F6000CE2
:104EE000CEF6334C012A4FEA4E1227D10244D2F8B3
:104EF000001902F51063B1F1FF3F4FF0010407DC28
:104F0000196841F000611960196841F08041196029
:104F10000EF00F01D0F83C2804FA01F18A43C0F8E2
:104F20003C28D0F81C2822EA0101C0F81C18186897
:104F300000EA0C010020196010BD00BF811801F5C6
:104F40003063D1F8001B0CF1707CB1F1FF3F4FF4DE
:104F50008034DDDCD4E700000146D0F8000E20F0FC
:104F60000300C1F8000ED1F8040820F0020200206E
:104F7000C1F80428704700000146D0F8000E20F068
:104F80000300C1F8000ED1F8040840F0020200202E
:104F9000C1F80428704700002DE9F04F86B0C3F334
:104FA000074516468E460021C0F80411C0F80811C6
:104FB000C0F80C11C0F81011C0F81411C0F8181185
:104FC000C0F81C11C0F82011C0F82411C0F8281135
:104FD000C0F82C11C0F83011C0F83411C0F83811E5
:104FE000C0F83C1145B1816B21F400118163816BE4
:104FF00041F4002111E000BFD0F8041841F0020193
:10500000C0F80418816B41F400118163816B21F4B5
:1050100000218163816B21F4802106F47F4281634A
:105020000021B2F5807FC0F8001E07D1D0F800281B
:10503000B1EB1E6F08D1C0F8002809E0D0F80018C5
:1050400041F0030102E000BF42F00101C0F8001886
:10505000002104910499013104910499B1F1706F18
:1050600052D8016900291ED4049901310491049990
:10507000B1F1706F48D80169002914D40499013145
:1050800004910499B1F1706F3ED8016900290AD4E6
:105090000499013104910499B1F1706F34D8016918
:1050A000B1F1FF3FD6DC002104914FF4846101612E
:1050B0000499013104910499B1F1706F24D8016908
:1050C00089061DD50499013104910499B1F1706FDD
:1050D0001AD80169890613D50499013104910499FC
:1050E000B1F1706F10D80169890609D504990131B1
:1050F00004910499B1F1706F06D801698906D7D47B
:105100004FF0000A02E000BF4FF0010A00210591B4
:105110000599013105910599B1F1706F4ED801697A
:1051200000291ED40599013105910599B1F1706FDF
:1051300044D80169002914D40599013105910599D4
:10514000B1F1706F3AD8016900290AD4059901318B
:1051500005910599B1F1706F30D80169B1F1FF3F48
:10516000D6DC0021059110210161059901310591DD
:105170000599B1F1706F21D80169C90620D505994B
:10518000013105910599B1F1706F17D80169C90610
:1051900016D50599013105910599B1F1706F0DD8BA
:1051A0000169C9060CD50599013105910599B1F13F
:1051B000706F03D80169C906D7D401E04FF0010A26
:1051C0005FFA8EF94FF00008B9F1000FC0F81088AF
:1051D000C0F81488C0F81C8800F00D81CDF80CA030
:1051E000CDE9015ED0F800194FF0006404EA111116
:1051F0004FF67F35B9F1010BC0F80019C0F81089DE
:10520000C0F8085974D0A9F1020103290BF0030A70
:1052100004D20121BAF1000F40D169E000962BF0D1
:10522000030700F5186600234FF0904C4FF67F32CD
:105230004FF0000E56F8601C0EF1040E0CEAE171FE
:1052400046F8601C46F8503C46F8582C56F8401C6E
:1052500077450CEAE17146F8401C46F8303C46F8C8
:10526000382C56F8201C0CEAE17146F8201C46F850
:10527000103C46F8182C31680CEAE171316033615A
:10528000B26006F18006D5D1009E0EF101014FF605
:105290007F354FF00064BAF1000F29D000F510639C
:1052A0004F01B446DE594FF0904202EAE67603EB36
:1052B0004111DE51664600274FF67F33BAF1010FE8
:1052C0000F618B6014D00E6ABAF1020F02EAE67227
:1052D00066460A620F638B620AD00A6C4FF09043F5
:1052E00003EAE2720A6400220A654FF67F328A649A
:1052F000D0F8001BBBF1000F04EA1111C0F8001B2D
:105300004FF00001C0F8101BC0F8085BDDE9015E3A
:10531000DDF80CA06FD0A9F1020103290BF0030CFA
:1053200004D20121BCF1000F3BD164E0A9460096F4
:105330002BF0030500F5386600234FF090474FF639
:105340007F32002156F8604C043107EAE47446F8D5
:10535000604C46F8503C46F8582C56F8404C8D426C
:1053600007EAE47446F8404C46F8303C46F8382CDE
:1053700056F8204C07EAE47446F8204C46F8103CF6
:1053800046F8182C346807EAE47434603361B2607C
:1053900006F18006D6D1009E01314D46BCF1000FCA
:1053A00029D000F530634F013446DE594FF090426A
:1053B00002EAE67603EB4111DE51264600274FF65E
:1053C0007F33BCF1010F0F618B6014D00E6ABCF10A
:1053D000020F02EAE67226460A620F638B620AD067
:1053E0000A6C4FF0904303EAE2720A6400220A65F5
:1053F0004FF67F328A64D0F810181EF47F0F21F424
:105400008071C0F810186FF08041C0F818804161B9
:1054100003D1816941F010018161816943F6000285
:10542000C8F23C02114316F47F0F816103D08169F9
:1054300041F008018161012D05D1816941F0804170
:1054400041F004018161504606B0BDE8F08F0000D4
:105450000146806820F0010200208A607047000049
:10546000D0F840C043F20B03C4F654739C4503D3F9
:10547000D0F8003B002B1ED40023C0F8103BD0F81E
:10548000103B012943F40023C0F8103BD0F8103B37
:1054900043F01803C0F8103BD0F8103B43F0C04372
:1054A000C0F8103B07D1C0F8142BD0F8001B41F016
:1054B0008021C0F8001B0020704700004A780B785C
:1054C000012A4FEA431210440ED1D0F8002922F4E9
:1054D0000012C0F80029097901F0FE01022914D157
:1054E00000F510600DE000BFD0F8002B22F4001290
:1054F000C0F8002B097901F0FE01022905D100F561
:105500003060016841F08051016000207047000068
:105510000A784B785101012B084407D1D0F80019C3
:10552000002900F5106107D50BE000BFD0F8001B83
:10553000002900F5306104D41AB1086820F08040D9
:105540000860086840F4001200200A6070470000FC
:10555000F0B54B78002591F800C04FF6FF76CFF6F6
:10556000F875012BCEF207062CD10C6900EB4C1E0E
:10557000DEF81079002C0EF510634FD03D401D6110
:105580001D69BCF1000F05EA06051D618E6800F07B
:105590009B80A519013DB5FBF6F50026C1F6F8760E
:1055A0001F6906EAC5463E431E610E79012E40F092
:1055B00098801E6926F0C0461E614FF0C04606EA7C
:1055C00045758BE000EB4C13D3F8107B4FF6FF745E
:1055D0002F40C3F8107BD3F8107BC0F2070437408C
:1055E000C3F8107B8D680E69BCF1000F03F53063C2
:1055F0003CD0002E3ED07719013FB7FBF5F740F2C3
:10560000000CBEB26E430E62C1F6F87C1D690CEA56
:10561000C7472F4326401F6133E000BF07EA060457
:105620001C611C6944F400241C611C692540002491
:10563000012A1D615DD000F510634FEA4C169F5999
:1056400047F004479F510F79012F33D1D0F80878E4
:10565000F558FF054FF0805758BF4FF000572F43C4
:10566000002AF75060D00020F0BD00BF002E18BF08
:105670000D610D621F6905EA040637431F614FF48F
:1056800000261F69012A47EA06071F6103D1CA687D
:10569000002A18BF5A61097901293DD1D0F80808BC
:1056A0001968C0054FF0805058BF4FF000500843B4
:1056B00031E000BF002CD6D00CF00F01012202FA1D
:1056C00001F100F6340329E0B44205D90E614FF42C
:1056D0000025344602E000BF4FF400251E69354323
:1056E0001D6125461E696FF3DF453543012A1D61A3
:1056F000A1D1CA69002A18BFCEF814290979012955
:105700000AD1D0F80818DEF80009C9054CBF40F0EE
:10571000805040F0005018604FF004411868084372
:1057200018600020F0BD00BFA2B2002A9BD0D61C9A
:105730004FF0FF33C96803EB960300F580504FEA42
:105740000C32032BC6F381030ED3B70827F00306F0
:105750000F68043E17504F6817508F681750CF6876
:1057600001F110011750F3D1002B3FF47CAF0F680B
:10577000012B87503FF477AF4F68022B87503FF4DF
:1057800072AF896881500020F0BD000081B0002216
:1057900000924A780978012A4FEA41113AD100F57E
:1057A00010625058B0F1FF3F3ADC885842F2107353
:1057B00040F000608850885840F080408850009841
:1057C000013000900098984264D85058B0F1FF3FE3
:1057D00026DC009801300090009898425AD8505822
:1057E000B0F1FF3F1CDC0098013000900098984217
:1057F00050D85058B0F1FF3F12DC009801300090B3
:105800000098984246D85058B0F1FF3F4FF0000042
:10581000D5DD3CE000F530625058B0F1FF3F03DDCC
:10582000002001B0704700BF885842F2107340F06A
:1058300000608850885840F08040885000980130BF
:1058400000900098984225D85058B0F1FF3FE7DC0F
:10585000009801300090009898421BD85058B0F141
:10586000FF3FDDDC0098013000900098984211D88D
:105870005058B0F1FF3FD3DC009801300090009801
:10588000984207D8505800284FF00000D6D401B0F5
:10589000704700BF012001B07047000001468068DA
:1058A00040F0010200208A607047000081B00022B1
:1058B0000092009A01320092009AB2F1706F51D8B2
:1058C0000269002A1ED4009A01320092009AB2F1B5
:1058D000706F47D80269002A14D4009A01320092EE
:1058E000009AB2F1706F3DD80269002A0AD4009A7A
:1058F00001320092009AB2F1706F33D80269B2F1AE
:10590000FF3FD6DC8901002220310092016100991D
:10591000013100910099B1F1706F23D801698906B6
:105920001DD50099013100910099B1F1706F19D81E
:105930000169890613D50099013100910099B1F1EF
:10594000706F0FD80169890609D50099013100915E
:105950000099B1F1706F05D801698906D7D400208C
:1059600001B07047032001B070470000D0F808086C
:1059700000F0060180074FF0020058BF0F200029F9
:1059800008BF084670470000406900F001007047FA
:10599000D0F81818D0F81C08084080B270470000F2
:1059A000D0F81818D0F81C080840000C7047000008
:1059B000D0F810C8D0F8343801F00F0223FA02F200
:1059C000D20100EB4110D2B2D0F8080942EA0C0132
:1059D0000840704700EB4111D1F8081BD0F81408BB
:1059E00008407047416980690840704710B59308C6
:1059F00002F0030E2CD05A1E032A03F0030C0FD31F
:105A000023F003034FF480528458043B0C60845805
:105A10004C6084588C608458CC6001F11001F3D143
:105A2000BCF1000F14D04FF4805284580B46BCF1E7
:105A3000010F43F8044B05D11946BEF1000F0AD1FE
:105A40001EE000BF8258BCF1020F4A601AD1083133
:105A5000BEF1000F14D04FF4805280580A46BEF1B8
:105A6000010F02F8010B04BF104610BD020ABEF17F
:105A7000020F4A7004BF881C10BD000C88700331EF
:105A8000084610BD4FF4805282588A600C31BEF136
:105A9000000FE0D1F4E70000B0B50446C06800296B
:105AA00020F0C040E06000F09980012940F0B08013
:105AB000E0680A2540F00050E0600A20FBF7D4F8C7
:105AC00054F8140FC00740F09C800A20FBF7CCF874
:105AD0002068C00740F09E800A20FBF7C5F82068C8
